:020000040800F2
:10000000502000200D0200086D2100086F2100081B
:1000100073210008772100087B2100080000000000
:100020000000000000000000000000007F21000828
:1000300081210008000000008321000887210008BA
:1000400027020008270200082702000827020008EC
:1000500027020008270200082702000827020008DC
:1000600027020008270200082702000827020008CC
:1000700027020008270200082702000827020008BC
:1000800027020008270200082702000827020008AC
:10009000270200082702000827020008270200089C
:1000A000270200082702000827020008270200088C
:1000B000270200082702000827020008270200087C
:1000C000270200082702000827020008270200086C
:1000D000270200082702000827020008270200085C
:1000E000270200082702000827020008270200084C
:1000F000270200082702000827020008270200083C
:10010000270200082702000827020008270200082B
:10011000270200082702000827020008270200081B
:10012000270200082702000827020008270200080B
:1001300027020008270200082702000827020008FB
:1001400027020008270200082702000827020008EB
:1001500027020008270200082702000827020008DB
:1001600027020008270200082702000827020008CB
:1001700027020008270200082702000800000000EC
:1001800027020008270200082702000827020008AB
:10019000270200082702000827020008270200089B
:1001A000270200082702000827020008270200088B
:1001B000270200082702000827020008270200087B
:1001C000270200082702000827020008270200086B
:1001D000270200082702000827020008270200085B
:1001E000270200082702000827020008270200084B
:1001F0002702000827020008DFF80CD002F052F8AE
:10020000004800473521000850200020064880475C
:1002100006480047FEE7FEE7FEE7FEE7FEE7FEE7EB
:10022000FEE7FEE7FEE7FEE791210008F90100087E
:10023000704770B50446684800684FF47A71B0FBA7
:10024000F1F5284600F06EF900222146501E00F01C
:10025000F3F8002070BD10B56048006840F40070ED
:100260005E490860032000F0D5F80F20FFF7E1FF9A
:1002700000F06EFC002010BD704710B54FF0FF304D
:100280005749086000200860401E091D08600020D2
:100290000860401E52491039086000200860401E66
:1002A000091D086000200860401E091D086000202C
:1002B000086000F04EFC002010BD4A480068401C59
:1002C00048490860704747480068704731B50024C6
:1002D00001F0BCFE044600BF01F0B8FE001B00990F
:1002E0008842F9D338BD4FF0E020006920F00200C9
:1002F0004FF0E021086170474FF0E020006940F0C6
:1003000002004FF0E02108617047374870473748D6
:100310000068000C704735480068C0F30B00704758
:100320003248406840F001003049486070472F482B
:10033000406820F001002D49486070472B48406814
:1003400040F002002949486070472848406820F082
:1003500002002649486070472448406840F0040085
:100360002249486070472148406820F004001F4936
:10037000486070471E48006840F001001C49086052
:1003800070471B48006820F0010019490860704759
:1003900017482038006840F480601549203908600B
:1003A000704713482038006820F440601049203915
:1003B000086070470E482038006840F480700C498F
:1003C0002039086070470A482038006820F480709F
:1003D000074920390860704710000020003C0240A7
:1003E000203802400000002000020201002004E04A
:1003F0002038014010B5002807DA0A07140ED94A40
:1004000000F00F031B1FD45403E00A07130ED64A53
:10041000135410BD00BF00F00702D24B0C3B19680B
:100420004FF6FF031940D14B0B4343EA0221CD4B5A
:100430000C3B196000BF70472DE9F05F80460D4608
:100440001646002700F087F9074639462A46334604
:1004500001F00700C0F1070ABAF1040F02D94FF00A
:10046000040A01E0C0F1070AD14600F1040ABAF11A
:10047000070F02D24FF0000A01E0A0F1030AD446B0
:100480004FF0010A0AFA09FAAAF1010A0AEA020A75
:100490000AFA0CFA4FF0010B0BFA0CFBABF1010B53
:1004A0000BEA030B4AEA0B0421464046FFF7A2FF82
:1004B000BDE8F09F00BF00F01F02012191404209FA
:1004C000920002F1E022C2F8001100BF704700BFA5
:1004D00000F01F0201219140A54A430942F8231070
:1004E00000BF704700BF00BF00BF00BF00BFBFF329
:1004F0004F8F00BF00BF00BF9A480C38006800F45F
:10050000E0609A490843001D96490C39086000BF15
:1005100000BF00BFBFF34F8F00BF00BF00BF00E0B0
:1005200000BFFDE770B504462546681EB0F1807F28
:1005300001D301200FE0681E4FF0E02148610F2138
:100540004FF0FF30FFF756FF00204FF0E0218861A9
:1005500007200861002070BD00BF00BF00BFBFF3CF
:100560005F8F00BF00BF00BF7E480C30006820F4E2
:1005700080307C490C31086000207A497C31086069
:10058000704740F00101774A7C32116075490C31A7
:10059000096841F48031734A0C32116000BF00BF1A
:1005A00000BFBFF34F8F00BF00BF00BF00BF00BF41
:1005B00000BFBFF36F8F00BF00BF00BF704741781F
:1005C000684A803211600178F9B1121D41681160EA
:1005D000017B0907C27A41EA0261827A41EAC2419B
:1005E000427B41EA8241827B41EA4241C27B41EA4D
:1005F0000241427A41EA0221027A41EA420102784A
:100600001143584A8832116005E00021554A84326E
:100610001160121D1160704710B500F09CF810BDFC
:100620002DE9F04304462046002808DA4D4F00F03B
:100630000F0CACF1040C17F80C703F0902E04A4FA4
:100640003F5C3F093D460E4606F00700C0F1070833
:10065000B8F1040F02D94FF0040801E0C0F1070817
:10066000C44600F10408B8F1070F02D24FF00008A9
:1006700001E0A0F10308474625FA07F84FF0010909
:1006800009FA0CF9A9F1010908EA0908C2F8008081
:100690004FF0010808FA07F8A8F1010808EA050870
:1006A000C3F8008000BFBDE8F08300BF00F01F0268
:1006B000012191402E4A8032430942F8231000BFA5
:1006C000704710B501460846294A8032430952F85E
:1006D000232000F01F040123A3401A400AB1012285
:1006E00000E00022104610BD00BF00F01F020121F3
:1006F0009140204A430942F8231000BF704710B5CB
:10070000014608461B4A8032430952F8232000F074
:100710001F040123A3401A400AB1012200E0002275
:10072000104610BD042808D14FF0E021096941F0BE
:1007300004014FF0E022116107E04FF0E021096968
:1007400021F004014FF0E02211617047704710B5AD
:10075000FFF7FCFF10BD03480C380068C0F302200F
:100760007047000018ED00E000E400E00000FA052A
:1007700080E100E080E200E0F8B502460B4600218F
:1007800000250024002000BFE4E0012606FA01F560
:100790001E6806EA0504AC4271D15E68022E02D0E2
:1007A0005E68122E13D1CF0802F1200656F82700FA
:1007B0004E07F70E0F26BE40B0434F07FF0E1E69CF
:1007C000BE403043CF0802F1200646F827001068EB
:1007D0004F000326BE40B0431E7906F003064F00CB
:1007E000BE40304310605E68012E08D05E68022E65
:1007F00005D05E68112E02D05E68122E13D190686B
:100800004F000326BE40B0434F00DE68BE40304379
:100810009060506801268E40B0431E79C6F30016E2
:100820008E4030435060D0684F000326BE40B04336
:100830004F009E68BE403043D0605E6806F0805630
:10084000B6F1805FA8D100BFB44E366846F480464A
:10085000B24F3E603E46366806F48046009600BFC2
:1008600000BFAF4E8F0856F827008E07370F0F26B0
:10087000BE40B043AB4EB24202D100262EE068E04B
:10088000A94EB24201D1012628E0A84EB24201D1C0
:10089000022623E0A64EB24201D103261EE0A54E59
:1008A000B24201D1042619E0A34EB24201D105267D
:1008B00014E0A24EB24201D106260FE0A04EB24291
:1008C00001D107260AE09F4EB24201D1082605E079
:1008D0009D4EB24201D1092600E00A268F073F0F44
:1008E000BE4030438E4E8F0846F82700974E306842
:1008F000A0435E6806F48036B6F5803F00D1204301
:10090000924E3060361D3068A0435E6806F40036B3
:10091000B6F5003F00D120438C4E361D3060361DA9
:100920003068A0435E6806F48016B6F5801F00D1DB
:100930002043864E08363060361D3068A0435E681E
:1009400006F40016B6F5001F00D120437F4E0C368A
:100950003060491C1029FFF418AFF8BDF0B50C4603
:1009600000250022002300219CE0012606FA01F563
:1009700004EA0502AA427DD106684FEA410C03272A
:1009800007FA0CF7BE430660CF0800F1200656F8C0
:1009900027604F074FEAD76C0F2707FA0CF7BE43C3
:1009A0004FEAD10C00F1200747F82C6086684FEA27
:1009B000410C032707FA0CF7BE43866047680126FF
:1009C0008E40B7434760C6684FEA410C032707FAD9
:1009D0000CF7BE43C660524E8F0856F827308E077C
:1009E000370F0F26BE4033404E4EB04201D1002695
:1009F0002DE04D4EB04201D1012628E04B4EB042D1
:100A000001D1022623E04A4EB04201D103261EE066
:100A1000484EB04201D1042619E0474EB04201D100
:100A2000052614E0454EB04201D106260FE0444EA3
:100A3000B04201D107260AE0424EB04201D1082659
:100A400005E0414EB04201D1092600E00A268F0799
:100A50003F0FBE409E4224D18E07370F0F2606FA65
:100A600007F32F4E8F0856F827609E432C4F4FEA0E
:100A7000910C00E015E047F82C60344E3668964340
:100A8000324F3E603E1D366896433F1D3E603E1D20
:100A9000366896433F1D3E603E1D366896433F1DB7
:100AA0003E60491C1029FFF460AFF0BD0246136997
:100AB0000B400BB1012000E0002070470AB18161BA
:100AC00001E00B048361704742694A40426170470C
:100AD00008B502464FF4803000900098084300901B
:100AE0000098D061D1610098D061D0690090D06940
:100AF00000F4803008B1002008BD0120FCE77047F9
:100B000010B50446114814300068204028B10F4841
:100B1000143004602046FFF7F2FF10BD4438024055
:100B20000838014000000240000402400008024072
:100B3000000C024000100240001402400018024065
:100B4000001C02400020024000240240003C014002
:100B5000704770477047704710B50024DA48406806
:100B600040F40070D84948600846406840F48070FE
:100B7000486001F06BFA044607E001F067FA001BD9
:100B8000B0F57A7F01D9032010BDCF484068C0F38B
:100B9000C0000028F1D00020F6E710B50024CA48B4
:100BA000406820F40070C84948600846406840F436
:100BB0008070486001F04AFA044607E001F046FA06
:100BC000001BB0F57A7F01D9032010BDBE484068F4
:100BD000C0F3C0000028F1D100BFF6E7BA480068B2
:100BE00040F40070B84908607047B748006820F4C6
:100BF0000070B54908607047B348006840F4006071
:100C0000B14908607047B048006820F40060AE4900
:100C100008607047AC48006840F48060AA490860EA
:100C20007047A948006820F48060A74908607047B1
:100C300038B5002400BFA548006840F08050A349A3
:100C400008600846006800F08050009000BF00BFB8
:100C50009D48006840F480309B49086001F0F6F937
:100C6000044607E001F0F2F9001BB0F57A7F01D9E4
:100C7000032038BD9448406800F48030B0F5803FD0
:100C8000F0D19148006840F400308F49086001F0CD
:100C9000DDF9044607E001F0D9F9001BB0F57A7FD1
:100CA00001D90320E5E78848406800F40030B0F53A
:100CB000003FF0D10020DCE738B5002400BF8348B6
:100CC000006840F08050814908600846006800F0E4
:100CD0008050009000BF00BF7B48006820F40030C7
:100CE0007949086001F0B2F9044607E001F0AEF975
:100CF000001BB0F57A7F01D9032038BD72484068E7
:100D000000F40030B0F5003FF0D06F48006820F4E8
:100D100080306D49086001F099F9044607E001F060
:100D200095F9001BB0F57A7F01D90320E5E7664805
:100D3000406800F48030B0F5803FF0D00020DCE760
:100D4000F8B505460E460024002700BF5F4800683E
:100D500040F080505D4908600846006800F080500F
:100D6000009000BF00BF5848406840F440205649FA
:100D700048600846006840F44020086001F066F9C9
:100D8000074607E001F062F9C01BB0F57A7F01D990
:100D90000320F8BD4C48406800F44020B0F5402FD7
:100DA000F0D04948046840F6034084432C43464849
:100DB00004604748006840F0040045490860012E7F
:100DC00001D130BF00E020BF4148006820F004009E
:100DD0003F4908600020DCE73B48006800F44040E1
:100DE000704738B50546002400BF3848006840F019
:100DF0008050364908600846006800F08050009036
:100E000000BF00BF31483838006800F00C000828E7
:100E100055D02E484038006820F080702B4940396A
:100E2000086001F013F9044606E001F00FF9001B19
:100E3000022801D9032038BD244840380068C0F397
:100E400040600028F1D100BF1F48006820F44040F6
:100E500028431D4908600846006800F4404000909F
:100E600000BF00BF19484038006840F08070174943
:100E70004039086001F0EAF8044606E001F0E6F8BF
:100E8000001B022801D90320D5E71048403800682C
:100E9000C0F340600028F1D001F0D8F8044607E024
:100EA00001F0D4F8001BB0F57A7F01D90320C2E726
:100EB00005484068C0F380300028F1D001E00120EF
:100EC000B9E70020B7E7000000700040403802405A
:100ED00010ED00E0F748006840F08100F549086037
:100EE0000020F44908310860F2480068F2490840DF
:100EF000F04908600020091D086008460068EF49B5
:100F00000843EC49091D08600020EA498431086063
:100F100008460068EA490843E64984310860E54824
:100F2000006820F48020E34908600020E1490C318A
:100F30000860E448E44908607047F8B504460025B5
:100F40000026207800F0010000287BD0D948083026
:100F5000006800F00C0004280ED0D6480830006865
:100F600000F00C00082812D1D248001D006800F4DF
:100F70008000B0F5800F0AD1CE480068C0F3404031
:100F800000285FD0606800285CD10120F8BD00BF58
:100F90006068B0F5803F06D1C648006840F48030F4
:100FA000C449086028E0606858B9C248006820F465
:100FB0008030C04908600846006820F4802008603E
:100FC0001AE06068B0F5A02F0BD1BA48006840F471
:100FD0008020B84908600846006840F48030086006
:100FE0000AE0B448006820F48030B249086008463E
:100FF000006820F48020086000BF606888B101F0BC
:1010000025F8054606E001F021F8401B642801D9C7
:101010000320BBE7A7480068C0F340400028F2D097
:1010200010E001F013F8054606E001F00FF8401B50
:10103000642801D90320A9E79E480068C0F3404016
:101040000028F2D1207800F0020002286AD19948E5
:101050000830006800F00C0060B196480830006865
:1010600000F00C0008281ED19248001D006800F412
:101070008000C0B98F480068C0F3400020B1E0682C
:10108000012801D0012081E78A48006820F0F8009B
:10109000F82292FAA2F2B2FA82F221699140084350
:1010A000844908603EE0E06828B38248006840F068
:1010B00001008049086000F0C9FF054606E000F025
:1010C000C5FF401B022801D903205FE7794800686B
:1010D000C0F340000028F2D07648006820F0F80005
:1010E000F82292FAA2F2B2FA82F221699140084300
:1010F0007049086016E06F48006820F001006D49F3
:10110000086000F0A3FF054606E000F09FFF401BCB
:10111000022801D9032039E766480068C0F340007F
:101120000028F2D1207800F00800082836D1606944
:10113000D0B160487430006840F001005D497431FE
:10114000086000F083FF054606E000F07FFF401BCB
:10115000022801D9032019E7564874300068C0F30B
:1011600040000028F1D019E052487430006820F0A7
:10117000010050497431086000F068FF054606E040
:1011800000F064FF401B022801D90320FEE6494815
:1011900074300068C0F340000028F1D1207800F0DE
:1011A0000400042874D143484030006800F08050A7
:1011B00080B900BF3F484030006840F080503D4952
:1011C000403108600846006800F08050009000BF81
:1011D00000BF01263D48006800F48070B0B93B486C
:1011E000006840F480703949086000F02FFF054620
:1011F00006E000F02BFF401B642801D90320C5E660
:101200003248006800F480700028F2D000BFA06867
:10121000012808D127487030006840F001002549B6
:10122000703108602DE0A06868B92248703000680D
:1012300020F001001F49703108600846006820F066
:10124000040008601DE0A06805280DD11948703021
:10125000006840F0040017497031086008460068D3
:1012600040F0010008600CE012487030006820F087
:1012700001001049703108600846006820F0040041
:10128000086000BFA06818B300F0E0FE054609E062
:101290003BE000F0DBFE401B41F28831884201D97F
:1012A000032073E6034870300068C0F34000002854
:1012B000EFD020E000380240FFFFF6FA10300024A3
:1012C000003000200024F4001000002000700040D6
:1012D00000F0BCFE054608E000F0B8FE401B41F2FD
:1012E0008831884201D9032050E6FE480068C0F3E7
:1012F00040000028F0D1012E07D1FA4830380068AC
:1013000020F08050F74930390860A069F0B3F54803
:101310006838006800F00C00082870D0A069022826
:1013200061D1F0487038006820F08070ED49703964
:10133000086000F08BFE054606E000F087FE401BCB
:10134000022801D9032021E6E64870380068C0F37E
:1013500040600028F1D1D4E90701084347F6C07284
:1013600092FAA2F2B2FA82F2616A91400843012233
:10137000A16AC2EB51014FF4403292FAA2F2B2FAE2
:1013800082F2914008434FF0706200E049E092FA27
:10139000A2F2B2FA82F2E16A914008434FF0E042D1
:1013A00092FAA2F2B2FA82F2216B91400843CD493F
:1013B0006C390860081F006840F08070091F0860E1
:1013C00000F044FE054606E000F040FE401B022807
:1013D00001D90320DAE5C34870380068C0F34060E3
:1013E0000028F1D01DE0BF487038006820F0807000
:1013F000BC497039086000F029FE054607E00EE0A0
:1014000000F024FE401B022801D90320BEE5B548A8
:1014100070380068C0F340600028F1D101E001207D
:10142000B4E50020B2E570B50021002200230020C1
:10143000AC4C683C246804F00C0424B1042C04D0A7
:10144000082C41D103E0A84840E0A8483EE0A54C64
:101450006C3C246804F03F01A24C6C3C246804F40A
:10146000800484B1A14CB4FBF1F59E4C6C3C246823
:1014700047F6C076344096FAA6F6B6FA86F6F440F9
:1014800005FB04F20FE0984CB4FBF1F5954C6C3C75
:10149000246847F6C076344096FAA6F6B6FA86F681
:1014A000F44005FB04F28F4C6C3C246804F4403497
:1014B0004FF4403595FAA5F5B5FA85F5EC40641C76
:1014C0006300B2FBF3F001E0874800BF00BF70BDCE
:1014D00070B504460D4600268548006800F00F00F0
:1014E000A8420ED28248006820F00F0028438049AD
:1014F00008600846006800F00F00A84201D00120F3
:1015000070BD207800F00200022809D175486838C3
:10151000006820F0F000A16808437249683908604B
:10152000207800F00100002865D06068012807D10C
:101530006C4870380068C0F34040A0B90120DFE774
:101540006068022807D1674870380068C0F34060BF
:1015500048B90120D4E7634870380068C0F3400000
:1015600008B90120CCE75F486838006820F0030024
:10157000616808435B496839086000F067FD06460A
:101580006068012811D108E000F060FD801B41F285
:101590008831884201D90320B2E752486838006890
:1015A00000F00C000428EFD125E06068022811D17A
:1015B00008E000F04BFD801B41F28831884201D9E0
:1015C00003209DE747486838006800F00C000828B1
:1015D000EFD110E008E000F039FD801B41F28831C6
:1015E000884201D903208BE73E486838006800F044
:1015F0000C000028EFD13E48006800F00F00A84220
:101600000ED93B48006820F00F0028433849086095
:101610000846006800F00F00A84201D001206FE7E3
:10162000207800F00400042809D12E4868380068AA
:1016300020F4E050E16808432A49683908602078BE
:1016400000F0080008280AD126486838006820F40D
:101650006040216940EAC100224968390860FFF70B
:10166000E2FE20496839096801F0F001F02292FA9F
:10167000A2F2B2FA82F2D1401E4A515CC8401E4921
:1016800008600F20FEF7D5FD002039E770B586B061
:1016900006460C4615469EBB00BF124840380068FF
:1016A00040F001000F49403908600846006800F02A
:1016B0000100009000BF00BF881501900220029039
:1016C0000320049000200390059001A90B48FFF728
:1016D00053F804486838006820F0EC6044EA0501DB
:1016E00008430EE0703802400024F40040787D0189
:1016F000003C0240A423000810000020000002402B
:1017000003E097496839086027E000BF94484038F3
:10171000006840F0040092494039086008460068BB
:1017200000F00400009000BF00BF481501900220A7
:1017300002900320049000200390059001A989489D
:10174000FFF71AF886486838006820F0784044EAC5
:10175000C501084382496839086006B070BD8048F9
:101760007038006840F400207D4970390860704787
:101770007B487038006820F400207949703908608F
:10178000704779480068704700B5FFF7FAFF744961
:101790006839096801F4E0514FF4E05292FAA2F27C
:1017A000B2FA82F2D140714A515CC84000BD00B526
:1017B000FFF7E7FF6A496839096801F460414FF4AF
:1017C000604292FAA2F2B2FA82F2D140674A515CC8
:1017D000C84000BD0F21016061497039096801F4FA
:1017E0008021B1F5802F03D14FF4A02141600DE09D
:1017F0005B497039096801F48031B1F5803F03D14C
:101800004FF48031416001E000214160544970395A
:10181000096801F0010111B10121C16001E000215D
:10182000C1604F497039096801F0F801F82292FA55
:10183000A2F2B2FA82F2D14001614949096801F08D
:101840000401042902D10521816009E044490968A5
:1018500001F0010111B10121816001E000218160ED
:101860003F49091D096801F0010111B101214161E0
:1018700001E0002141613A497039096801F0807145
:10188000B1F1807F02D10221816101E001218161FA
:1018900033496C39096801F48002C26130496C39FE
:1018A000096801F03F0202622D496C39096847F668
:1018B000C072114092FAA2F2B2FA82F2D1404162B1
:1018C00027496C39096801F4403101F5803149003C
:1018D0004FF4403292FAA2F2B2FA82F2D14081621F
:1018E0001F496C39096801F070614FF0706292FA1B
:1018F000A2F2B2FA82F2D140C16270470F220260B6
:10190000174A683A126802F003024260144A683AC1
:10191000126802F0F0028260114A683A126802F41A
:10192000E052C2600E4A683A126802F46042D2087D
:1019300002610F4A126802F00F020A607047704796
:1019400010B507486438006800F08000802805D191
:10195000FFF7F5FF802002496239087010BD0000D2
:10196000703802400008024010000020B423000834
:10197000003C024000B593B000BF00BF00BF00BFF5
:1019800000BFBFF34F8F00BF00BF00BF00BF00BF4D
:1019900000BFBFF36F8F00BF00BF00BF00205E49D4
:1019A00008605E48006840F400305C49086000BF91
:1019B00000BF00BFBFF34F8F00BF00BF00BF00BF1D
:1019C00000BF00BFBFF36F8F00BF00BF00BF00BFED
:1019D00000F055F800BF5248006840F08050504970
:1019E00008600846006800F08050009000BF00BF0B
:1019F00000BF4C48006840F440404A49086008462F
:101A0000006800F44040009000BF00BF012001903A
:101A100000040290002004904FF4800108910220FD
:101A20000790192109914FF4D8710A9102210B9165
:101A300009210C9101A8FFF780FA10B1012013B021
:101A400000BDFFF7F5F808B10120F8E702200F907C
:101A50000020109007200E900E9840F008000E9085
:101A60004FF4A05011904FF48050129006210EA810
:101A7000FFF72EFD08B10120E1E70020DFE7F0B518
:101A80000024264F70373C603C1F2068C0F34E3264
:101A900000F00704251DC0F3C903B3FA83F404F072
:101AA0001F0600BF00BF00BFBFF34F8F00BF00BFC6
:101AB00000BF00BF1C4600BF04FA06F702FA05FC8F
:101AC00047EA0C01144F10373960271EA4F10104B6
:101AD000F2D1141EA2F10102ECD100BF00BF00BF81
:101AE000BFF34F8F00BF00BF00BF0C4C246844F40D
:101AF00080340A4F3C6000BF00BF00BFBFF34F8F70
:101B000000BF00BF00BF00BF00BF00BFBFF36F8FAB
:101B100000BF00BF00BFF0BD50EF00E014ED00E0DB
:101B2000403802400070004001464FF40030081A6F
:101B3000C0F38F2070472DE9F04304460E4615464A
:101B4000DDE907892046FFF7EFFFC7B2002243E037
:101B500001209040304000B93CE0B14830F8170017
:101B6000012191400843AE4921F81700E0684FEA8F
:101B7000420C032101FA0CF18843510008FA01F1EB
:101B80000843E06020684FEA420C032101FA0CF19F
:101B90008843510005FA01F108432060012D01D06E
:101BA000022D16D161680120904080B221EA000028
:101BB00003FA02F189B208436060A0684FEA420C60
:101BC000032101FA0CF18843510009FA01F108439D
:101BD000A06000BF501CC2B2102AB9DBBDE8F08380
:101BE00000B502461046FFF79FFF012101FA00F001
:101BF0008C49096808438B49086000BD2DE9FC4306
:101C000005460C4616461F46DDE909890CB9BDE8B4
:101C1000FC832846FFF7E4FF3B4632462146284630
:101C2000CDE90089FFF787FF00BFF0E72DE9FC470A
:101C300005460E4617469846DDE90A9A0EB9BDE8F4
:101C4000FC872846FFF7CCFF00241AE00120A040C3
:101C5000304000B914E0E10805F1200050F82100FF
:101C60006107CA0E0F21914088436107C90E0AFA25
:101C700001F10843E20805F1200141F8220000BF0C
:101C8000641C102CE2D33B46022231462846CDE9A3
:101C90000089FFF750FF00BFD1E770B503460C463F
:101CA0001846FFF741FFC5B2002214E00120904022
:101CB000204070B1186856000321B14008431860F5
:101CC000574830F81500012191408843544921F8C4
:101CD0001500501CC2B2102AE8DB70BD30B50246B8
:101CE00000200BE0012383400B402BB1136845001B
:101CF0000324AC40A3431360431CD8B21028F1DB8B
:101D000030BD30B5024600200FE0012383400B4078
:101D10004BB1136845000324AC40A34345000124A4
:101D2000AC4023431360431CD8B21028EDDB30BD18
:101D300030B5024600200BE0012383400B402BB15D
:101D4000136845000324AC4023431360431CD8B2FE
:101D50001028F1DB30BD30B50246002011E0012330
:101D600083400B4003B90AE0136845000324AC40EC
:101D7000A34345000224AC402343136000BF431C2F
:101D8000D8B21028EBDB30BD70B50346002011E05F
:101D9000012484400C4004B90AE0DC6846000325B5
:101DA000B540AC43450002FA05F52C43DC6000BFAA
:101DB000441CE0B21028EBDB70BD41F48032C261FC
:101DC000C161C261C369C36970470146002002E076
:101DD000421C90B249100129FADC704700B5024656
:101DE0001046FFF7A1FE012181400E48006888439C
:101DF0000C49086000BD00B502461046FFF794FE8E
:101E0000074931F8100000BD00B502461046FFF743
:101E10008BFE034931F81000C04380B200BD0000C2
:101E20001C000020303802409748006820F0807085
:101E3000954A10601046006840F08070106093482A
:101E4000006820F00100914A10601046006840F0E0
:101E500001001060002050601046416800BF00BFC4
:101E60008A484068401A70472DE9F04705460E46FB
:101E700017469846DDF8209085480078052802DB53
:101E80000020BDE8F087142000F056FA04460CB993
:101E90000020F6E765606068A060207866F30000C7
:101EA0002070207867F341002070C4F80C80C4F8DB
:101EB0001090774801780078401C754A1070101D0A
:101EC00040F821402046DCE72DE9F0410646002499
:101ED00008E06F48001D50F82400B04200D105E032
:101EE000601CC4B26A480078A042F2DC00BF6848B7
:101EF0000078A04201D1BDE8F0816548001D50F88E
:101F0000247000BFEFF31080054672B608E0604809
:101F1000001D611C50F8211040F82410601CC4B250
:101F20005B480078401EA042F1DC59480078401E12
:101F300057490870384600F0D7F905B962B600BFB6
:101F4000D9E7017821F0020101707047017821F092
:101F50000201891C0170704741688160704709B1B6
:101F6000012200E00022037862F30003037070474F
:101F700041607047704710B546480068401C4549AD
:101F800008604548006820B143480068401E424947
:101F90000860002453E03E48001D50F8240000284B
:101FA0004BD03B48001D50F824000078C0F340009F
:101FB000F0B33748001D50F82400806850B1344811
:101FC000001D50F824008068401E3149091D51F859
:101FD000241088602E48001D50F82400806838BB0B
:101FE0002B4B1B1D53F824301969294B1B1D53F82B
:101FF000240053F82430DA6890472548001D50F833
:10200000240041682248001D50F8240081602048C7
:10201000001D50F82400007800F0010040B91C4871
:10202000001D50F82400007820F00201184800E05C
:1020300003E0001D50F824000170601CC4B2144875
:102040000078A042A7DCFFF795FF10BD114800689B
:10205000704700B5014600BFEFF3058048B9FFF7B0
:10206000F5FF024600BFFFF7F1FF801A8842FAD35E
:1020700009E006E04FF0E020006900F4803000B194
:10208000491E0029F6D100BDFCED00E0001000E083
:102090003800002008000020040000201CB50320A8
:1020A00000210B460122CDE9001042F220011D481B
:1020B000FFF7A4FD1C481B49183108601CBD1CB566
:1020C0000020022103460246CDE9001001211748F5
:1020D000FFF794FD1CBD1548006900F0010080F079
:1020E000010030B91248007830B901201049087059
:1020F000704700200E4908700020F9E70B4800697E
:1021000000F0010080F0010038B10948007838B1D2
:102110000020074908700120704701200449087019
:102120000020F9E7002402400000202000000240C7
:102130000C000020FFF71EFCFEF78DF8FFF7AEFF46
:10214000FFF7BDFFFFF770FE0DE00748006842F2A1
:1021500020014840044908604FF4FA742046FFF714
:1021600078FF00BF00BFF0E714240240704700BFB3
:10217000FEE700BFFEE700BFFEE700BFFEE77047D7
:1021800070477047704710B5FFF7F5FE10BD0000AF
:102190003C48006840F001003A4908600020394995
:1021A00008310860374800683749084035490860F9
:1021B0003648091D0860081F006820F48020091FA8
:1021C000086000202F490C3108604FF00060304952
:1021D0000860704770B5002000220223002402210D
:1021E000284D08352D6805F00C0020B1042806D0D4
:1021F000082834D107E0274D274E356033E0274DBE
:10220000254E35602FE01F4D2D1D2D68C5F38054E0
:102210001C4D2D1D2D6805F03F0154B11F4DB5FB20
:10222000F1F5184E361D3668C6F3881605FB06F222
:1022300009E0184DB5FBF1F5124E361D3668C6F3B0
:10224000881605FB06F20F4D2D1D2D68C5F30145BF
:102250006D1C6B00B2FBF3F50F4E356003E00D4DC6
:102260000D4E356000BF00BF064D08352D68C5F323
:1022700003150B4E705D084D2D68C540064E356048
:1022800070BD000000380240FFFFF6FE1030002451
:1022900008ED00E00024F4001000002040787D01EB
:1022A000A4230008064C074D06E0E06840F0010357
:1022B00094E8070098471034AC42F6D3FDF7A0FF2E
:1022C000BC230008DC23000802E008C8121F08C174
:1022D000002AFAD170477047002001E001C1121FA7
:1022E000002AFBD17047000010B5002821D0114B07
:1022F0000022001F196803E0814203D80A4649689A
:102300000029F9D152B11368841A9C4204D10068A3
:1023100018441060104602E0506000E0186039B1C7
:1023200002680B1A934203D10B681A440260496891
:10233000416010BD14000020F0B50B30154D20F0A9
:1023400007010024144A0FE003688B420BD38B4231
:1023500005D95E1A43184768C3E9006700E043687F
:10236000136002C004E0021D10680028ECD1204672
:10237000002802D1286808B10020F0BD064A0748AD
:102380001060074A121A22F00702C0E90024012057
:102390002860D7E718000020140000205400002017
:1023A00050100020000000000000000001020304A3
:1023B000060708090000000001020304DC230008EE
:1023C000000000201C000000C8220008F8230008BC
:1023D0001C00002034200000D8220008000000006B
:1023E0000000000000000000000000000024F400D5
:0823F0000000000000000000E5
:04000005080001F9F5
:00000001FF
