:020000040800F2
:10000000082600209D0100084336000847310008FB
:1000100041360008ED030008255F000800000000DD
:100020000000000000000000000000005B4200082B
:10003000C904000800000000CF3700085D42000836
:10004000B7010008B7010008B7010008B7010008B0
:10005000B7010008B7010008B7010008B7010008A0
:10006000B7010008B7010008B7010008B701000890
:10007000B7010008B7010008B7010008B701000880
:10008000B7010008B7010008B7010008B701000870
:10009000B7010008B7010008B7010008B701000860
:1000A000B7010008B7010008B7010008B701000850
:1000B000B7010008B7010008B7010008B701000840
:1000C000B7010008B7010008B7010008B701000830
:1000D000B701000881480008B7010008B70100080F
:1000E000B7010008B7010008B7010008B701000810
:1000F000B7010008B7010008B7010008B701000800
:10010000B7010008B7010008B7010008B7010008EF
:10011000B7010008B701000865430008B7010008EF
:10012000B7010008B701000835040008B70100084E
:10013000B7010008B7010008B7010008B7010008BF
:10014000B7010008B7010008B701000845360008EC
:10015000B7010008B701000841040008B701000812
:10016000B7010008B7010008B7010008B70100088F
:10017000B7010008B7010008B7010008000000003F
:10018000B7010008B7010008DFF80CD000F08CF8C8
:100190000048004701600008082600200648804704
:1001A00006480047FEE7FEE7FEE7FEE7FEE7FEE75C
:1001B000FEE7FEE7FEE7FEE71143000889010008BD
:1001C0002DE9F05F0546002092469B46884606468C
:1001D000814640241BE0284641464746224600F01F
:1001E00053F853465A46C01A914110D31146184647
:1001F000224600F03AF82D1A67EB01084F462246D6
:100200000120002100F031F817EB00094E41201EBB
:10021000A4F10104DFDC484631462A464346BDE8E6
:10022000F09F40EA01039B0703D009E008C9121FB1
:1002300008C0042AFAD203E011F8013B00F8013BA0
:10024000521EF9D27047D2B201E000F8012B491ECC
:10025000FBD270470022F6E710B513460A46044663
:100260001946FFF7F0FF204610BD202A04DB203A94
:1002700000FA02F1002070479140C2F1200320FAF9
:1002800003F3194390407047202A04DB203A21FAF7
:1002900002F00021704721FA02F3D040C2F120029F
:1002A0009140084319467047064C074D06E0E06848
:1002B00040F0010394E8070098471034AC42F6D3AD
:1002C000FFF766FF206100084061000870B58C18D8
:1002D00010F8015B15F0070301D110F8013B2A115A
:1002E00006D110F8012B03E010F8016B01F8016B47
:1002F0005B1EF9D12B0705D40023521E0DD401F843
:10030000013BFAE710F8013BCB1A921C03E013F80B
:10031000015B01F8015B521EF9D5A142D8D3002040
:1003200070BD000010B501241021034800F0E4FB6B
:1003300000B10024204610BD0008024001460148DB
:1003400002F0B2B86402002010B5044802F0BEF812
:10035000042801D0012010BD002010BD640200203F
:1003600010B500F015F8012801D0012010BD074894
:1003700002F0C2F8040006D14FF40061034801F016
:100380006AFF00B10124204610BD00006402002075
:1003900008B501208DF80000FFF7C4FF10B9002058
:1003A0008DF800009DF8000008BD000038B500245D
:1003B000009313460A460146034802F039F900B19A
:1003C0000124204638BD00006402002038B5002416
:1003D000009313460A460146034802F003FA00B1AF
:1003E0000124204638BD000064020020FEE7002002
:1003F000704700207047000010B5002204490548EE
:1004000004F038FB0449034804F02EFB002010BD23
:10041000FC15002058050020FC0D002010B50146F9
:10042000034804F021FB024804F002FB002010BD49
:1004300058050020014800F0EBB80000F804002047
:10044000014800F0E5B80000980400200168182376
:10045000CAB2103AB2FBF3F2054B6FF30901032A5B
:100460009B5CC36500D9091D816508467047000083
:100470000061000810B5014600208B698A6A4FF0C0
:10048000C07453B1B3F5005F15D072B1012A0CD01E
:10049000022A0AD0032A09D104E01AB1012A06D09F
:1004A000022A03D1C96AC90100D5012010BDC96A59
:1004B000A142FAD010BD002AF7D0012AF2D0022AB8
:1004C000F3D0032AF3D010BD70477047002200F02C
:1004D00001B8000030B50E4B054601205C7A002CB7
:1004E00014D1587A1C54587A03EB800045605D7A29
:1004F00003F108002A54587A421C5A7230300870AE
:100500003A2048702F208870CC70002030BD000049
:10051000FC1D002070B5B3F5804F05D06FF0704121
:1005200040F82210002070BD50F82240084B8E8900
:100530001C40D1E9003543EA05138D6889692D0215
:1005400045EA06452B430B43234340F82230E9E7B5
:100550000000F0CFF0B50C6850F82430114A134079
:10056000D1E90125D1E903672A433E4332434E696D
:1005700032438E693243CE6932430E6A32434E6A49
:1005800032438E6A3243CE6A3243CE6B096B3243BA
:100590000A431A43082D01D142F0400240F82420BA
:1005A0000020F0BD8000F0FF30B500EB8202506803
:1005B0008D8900F04043D1E9000440EA04108C68C2
:1005C000240244EA054420430C8A074D05EB0454F9
:1005D00020430C7D6D0105EB0464896920430843C9
:1005E00018435060002030BD0000F0FF90F8351037
:1005F000022903D08021416501207047052180F840
:1006000035100068016821F0010101600020704789
:100610002DE9F84304464FF00009CDF800906348F7
:100620004FF41651A56D0068B0FBF1F72E6894F8F1
:100630005C10082000FA01F131420FD021680A68ED
:1006400052070BD50A6822F004020A6094F85C1085
:100650008840A860606D40F00100606594F85C100F
:100660004FF0010808FA01F0304208D021684969CA
:10067000090604D5A860606D40F00200606594F83A
:100680005C1004208840304208D02168096889073E
:1006900004D5A860606D40F00400606594F85C10BB
:1006A00010208840304218D021680968090714D505
:1006B000A86020680168490304D50068000308D5D4
:1006C000A16C07E00168C90503D4016821F00801A5
:1006D0000160216C09B12046884794F85C10202005
:1006E0008840304231D021680968C9062DD5A860FC
:1006F00094F8350005282068016806D0490347D5DD
:10070000006800031DD4616C1CE021F0160101603B
:100710002068416921F080014161206C08B9A06C1A
:1007200020B12068016821F00801016094F85C1094
:100730003F208840A86084F8349084F83580216D8B
:100740001FE0E16B09B120468847606D00282BD07F
:10075000606DC00714D0052084F83500206801685A
:1007600021F0010101600098401C0090B84203D8BC
:1007700020680068C007F6D184F8349084F835808A
:10078000E16C002910D001B02046BDE8F0430847D5
:100790000168C905D5D4016821F01001016084F811
:1007A000349084F83580CCE7BDE8F8837C000020E5
:1007B0002DE9F041044600F0B1F906465CB1002590
:1007C00084F83450022084F835002068016821F054
:1007D000010101600DE00120BDE8F08100F09EF90B
:1007E000801B052805D920206065032084F835008A
:1007F000F2E720680068C007F0D12268116820483D
:100800000140D4E901031843D4E9033633431843C4
:1008100063691843A3691843E3691843236A1843BB
:100820000843616A042903D1D4E90B13194308432F
:10083000106020684069666A20F0070130460E4368
:10084000012704280CD1A06A0643E06A40B1204683
:10085000FFF710FE20B14020606584F83570BAE7DC
:10086000206846612046FFF7F1FD94F85C203F21A7
:1008700091408160656584F835700020ACE7000028
:100880003F8010F070B5044600F048F90546601C42
:1008900002D004480078044400F040F9401BA04214
:1008A000FAD370BD700000202DE9F04186B014210C
:1008B0006846FFF7CFFC20480168002939D101269E
:1008C00006601E488846016841F001010160006829
:1008D000022400F0010005904FF68050CDE900049D
:1008E000174FCDE902460C2569463846049500F0BD
:1008F0002BF82002CDE90004029469463846CDE980
:10090000034500F021F8CDE902464CF2B370CDE981
:1009100000040C4E69460495304600F015F820039B
:100920008DE811010320CDE903056946304600F04A
:100930000BF806B0BDE8F08108000020383802400E
:1009400000100240000C02402DE9F84FDFF87CB1A6
:1009500000224FF001084FF0030A4FF00F090BF18E
:10096000040E00BF0B6808FA02F42340A3426ED1C4
:100970004D68022D01D0122D0ED1D50800EB850C4B
:10098000DCF820505607F70E09FA07F6B5430E6952
:10099000BE402E43CCF82060066855000F790AFA55
:1009A00005FC07F0030726EA0C06AF403743076053
:1009B0004E68012E05D0022E03D0112E01D0122E2A
:1009C0000ED18668CF6826EA0C06AF4037438760B1
:1009D0004668A6430C79C4F3001494403443446041
:1009E000C6688C6826EA0C06AC403443C4604C6888
:1009F000E40065D5364C256845F4804525602468BB
:100A000022F0030504F480440094324C2E19D6F8E9
:100A1000084895072F0F09FA07F5AC432E4DA84259
:100A200001D1002524E02D4DA84201D101251FE070
:100A30002B4DA84201D102251AE02A4DA84201D12E
:100A4000032515E0284DA84202D1042510E037E027
:100A5000264DA84201D105250AE0254DA84201D125
:100A6000062505E0234DA84201D1072500E0082511
:100A7000BD402543C6F80858DBF800405D464E6887
:100A80009C43F60300D51C432C60DEF800407546FD
:100A90004E689C43B60300D51C432C600B4D0835B3
:100AA0002C684E689C43F60200D51C432C60074D11
:100AB0000C352C684E689C43B60200D51C432C6054
:100AC000521C102AFFF44EAFBDE8F88F003C0140E5
:100AD000443802400030014000000240000402405F
:100AE00000080240000C02400010024000140240C6
:100AF00000180240001C02400069084000D001209C
:100B00007047426931EA020200D1090481617047ED
:100B10000AB1816170470904FBE700000148806861
:100B2000704700007000002070B504001BD094F8DE
:100B30003D00002520B984F83C50204600F0AEF876
:100B4000242084F83D002068016821F00101016043
:100B500000F05EFF4D4A6168914201D84C4900E0C7
:100B60004C49884201D2012070BD4B492368B0FB3B
:100B7000F1F15E6826F03F060E435E6063689342C3
:100B800006D94FF4967359434FF47A73B1FBF3F1DE
:100B90002368491C1E6A26F03F06314319626168CA
:100BA000914210D84900401EB0FBF1F2521CC2F332
:100BB0000B02042A01D2042022E0B0FBF1F0401C19
:100BC000C0F30B001CE0A368F3B301EBC10202EB1E
:100BD0000116421EB2FBF6F2521C42F4804212058C
:100BE00049D093B301EBC10202EB0111401EB0FBEF
:100BF000F1F0401CC0F30B0040F4804040F4004092
:100C00002168CA694CF6FF739A431043C861D4E95E
:100C10000701084321680A6822F0C00210430860F7
:100C2000D4E9030101432068826848F2FF339A4304
:100C300011438160D4E9050108432168CA6822F0A4
:100C4000FF021043C86001E00EE016E02068016872
:100C500041F0010101602564202084F83D002563F6
:100C600084F83E50002070BD01EB4106421EB2FBED
:100C7000F6F2521CB3E70120C2E701EB4101401E2E
:100C8000B0FBF1F0401CC0F30B00B7E7A0860100F9
:100C900080841E0000093D0040420F0010B586B060
:100CA000044614216846FFF7D5FA144920688842A3
:100CB00021D11348016841F00201016000686946D2
:100CC00000F0020005904FF4406000901220019067
:100CD0000120029003200390042004900948FFF7AC
:100CE00033FE07481030016841F48001016000685C
:100CF00000F48000059006B010BD000000580040D0
:100D000030380240000402400248816802781144F1
:100D100081607047700000200B4810B5016841F4F5
:100D200000710160016841F480610160016841F473
:100D300080710160032000F06FF8002000F006F8D9
:100D400000F024F8002010BD003C024070B50D4DAD
:100D500004464FF47A712878B1FBF0F00A4909682B
:100D6000B1FBF0F001F0CBFE48B9102C07D2002205
:100D70002146501E00F030F800206C6070BD01204C
:100D800070BD0000700000207C0000200A4808B5FB
:100D9000016841F480410160006800F480400090E7
:100DA0000548001F016841F080510160006800F0B3
:100DB0008050009008BD000044380240002809DB44
:100DC00000F01F02012191404009800000F1E02065
:100DD000C0F8001170470000F0B40E4B1B680C46C1
:100DE000C3F30223C3F10705042D00D90425191DFF
:100DF000072901D2002300E0DB1E012606FA05F1D7
:100E0000491E214099409E40761E16403143F0BC59
:100E100005F092B80CED00E0064900F00702086802
:100E20004FF6FF03184040EA0220034A10430860CF
:100E3000704700000CED00E00000FA057047006804
:100E4000416200207047F0B50368586A39B19C6A66
:100E50004FF4827600EB144400204D1E0AE040EA75
:100E6000024098620FE006EB8007DF59401C04EB5C
:100E70001744C0B2A842F6D344EA02404FF480724D
:100E800002EB810158500020F0BDD0F8040404F0BA
:100E900086B8C1EBC10200EB8202D0F80404926C68
:100EA00003F0D9BFC1EBC10200EB8202D0F8040409
:100EB000D2F8082204F032B8D0F8040404F071B873
:100EC00070B504460B0601F00F00C0EBC00104EB47
:100ED00081014FF001024FF0000503D581F83D205C
:100EE0003C3103E081F8FD5101F5FE71087094F882
:100EF000BC03012808D084F8BC23206804F0C8FB98
:100F000084F8BC53002070BD022070BD70B504464B
:100F100001F00F006268904201D9012070BD0B06FC
:100F200001F00F01C1EBC10104EB81014FF001029F
:100F30004FF0000503D581F83D203C3103E081F8F6
:100F4000FD5101F5FE718D70087094F8BC03012805
:100F500008D084F8BC23206804F076FD84F8BC53E4
:100F6000002070BD022070BD01F00F01C1EBC10176
:100F700000EB8100D0F8140270472DE9F0410446DF
:100F80000F0601F00F00C0EBC00104EB81014FF030
:100F900001064FF0000503D581F83D603C3103E0C8
:100FA00081F8FD5101F5FE7108708A60CB704A78B6
:100FB00002B1C880022B00D10D7194F8BC03012846
:100FC00009D084F8BC63206804F0B2FA284684F89B
:100FD000BC53BDE8F0810220FBE770B50C4601F080
:100FE0000F05C5EBC50100EB8101C1F81032C1F856
:100FF00008220023C1F8143281F8FD3181F8FC5138
:10100000036901F5FE71012B00D10A612207027C00
:10101000006803D004F070FD002070BD04F05CFC9B
:10102000FAE770B504460D4601F00F00616888428A
:1010300001D9012070BD29064FF000064FF00102D2
:1010400007D5C0EBC00104EB810181F83D203C31A4
:1010500007E0C5EBC50104EB810181F8FD6101F5F5
:10106000FE718A70087094F8BC03012807D084F8D8
:10107000BC23206804F014FD280702D007E00220FA
:1010800070BD217C04F57172206804F0B1FC84F815
:10109000BC63002070BD70B50C4601F00F05C5EBB8
:1010A000C50100EB81010B658A6400234B650123B8
:1010B00081F83D3001F83C5F0369012B00D10A61E2
:1010C0002207027C006803D004F016FD002070BDEA
:1010D00004F002FCFAE700002DE9FC5F0568044615
:1010E000284604F032FE00287ED1206804F059FE24
:1010F000002879D0206804F054FE800704D52068C9
:10110000416901F002014161206804F04AFE0103D7
:1011100004F571704FF0010A4FF0080B009075D57F
:101120000026206804F01CFE0746DFF808946BE0F8
:10113000F80767D0F1B2206804F02BFE8046C007A4
:1011400007D005EB4611C1F808AB3146204602F046
:101150007FFA5FEA087032D52068016C00EB461018
:101160000191D0F8081B2269012A019A0FD0F24B95
:101170009A4214D1090403D54FF40041C0F8081B6A
:10118000204600F0C9FA206901280FD013E04A4533
:1011900005D9090403D54FF40041C0F8081B2046C7
:1011A00000F0BAFA01984845EDD804E02068012122
:1011B000009A04F01DFC05EB4611C1F808BB5FEA7C
:1011C000C86004D505EB46111020C1F8080B5FEA92
:1011D00088600ED52069012804D120680121009A79
:1011E00004F006FC202100E0A1E105EB4610C0F868
:1011F000081B5FEA884005D505EB46104FF4005107
:10120000C0F8081B7F08761C002F91D1206804F0DD
:10121000C8FD40034FF000095FD5206804F099FD38
:101220000746002657E0F80753D0F1B2206804F0D3
:101230009EFD8046C00726D006F00F020AFA02F093
:10124000D5F834288243C5F8342805EB4610C0F899
:1012500008A92069012807D1C6EBC60004EB80006D
:10126000D0E9112111448164F1B22046FFF711FE4B
:101270002069012807D136B9206D20B920680121E5
:10128000009A04F0B5FB5FEA087003D505EB461140
:10129000C1F808B95FEAC86004D505EB4611102013
:1012A000C1F808095FEA486004D505EB4610402103
:1012B000C0F808195FEA887004D505EB46100221D2
:1012C000C0F808195FEA086003D53146204602F0ED
:1012D0002DFA7F08761C002FA5D1206804F061FD4F
:1012E000002811DAD5F8040820F00100C5F8040838
:1012F00094F8F40301282BD0204600F0F1F920687F
:10130000416901F000414161206804F04AFD000597
:101310000BD5D5F80808C00702D0204600F024FA03
:101320002068416901F400614161206804F039FDE1
:10133000C00461D5D5F8040820F00101C5F80418EF
:101340001021206804F0E2FC00214FF67F321AE001
:1013500084F8F49300212046FFF770FDCFE700BF2B
:1013600005EB4110C0F80829D0F8003923F4001328
:10137000C0F80039C0F8082BD0F8003B23F4001364
:10138000C0F8003B491C60688842E9D8D5F81C08C1
:1013900040F00111C5F81C18206B002828460DD01C
:1013A000D0F8840840F00B00C5F88408D5F844084C
:1013B00040F00B012846C5F844180DE0D0F8140899
:1013C00042F22B010843C5F81408D5F8100840F084
:1013D0000B012846C5F81018D0F8000820F4FE616B
:1013E000C5F80018217C2068009A04F001FB2068F1
:1013F000416901F480514161206804F0D2FC80040D
:1014000015D5206804F0D4F8206804F091FCE06061
:1014100000F0F8FA0146227B206804F0FDFC20462B
:1014200000F048F92068416901F4005141612068E9
:1014300004F0B7FCC00634D52068816921F01001A2
:1014400081612F6A07F00F00C0EBC00004EB80063B
:10145000C7F3434006F5FE76022802D0062811D0D5
:101460001AE047F6F070074216D0C7F30A12174683
:101470002846F16804F099FCF0683844F060B069DF
:10148000384408E008222846009904F08EFCB06930
:10149000C7F30A110844B0612168886940F0100060
:1014A0008861206804F07DFC000707D5204600F025
:1014B0001BF92168486900F008004861206804F0C1
:1014C00070FCC00208D50021204600F037F82168E2
:1014D000486900F480104861206804F062FC8002D2
:1014E00008D50021204600F02DF82168486900F455
:1014F00000104861206804F054FC400007D52046E5
:10150000FFF7C3FC2068416901F080414161206818
:1015100004F047FC40070AD520684568680702D5F3
:101520002046FFF7C9FC2068416829434160BDE8B7
:10153000FC9F00000A30544F0A31544FD0F8040485
:1015400003F07EBDD0F8040403F07CBD2DE9F0412A
:101550008AB0040005D094F8BD032668002520B1A8
:1015600008E001200AB0BDE8F08184F8BC532046B1
:1015700000F05EF8032084F8BD03F06BC00500D4D2
:101580002561206804F0A2F904F1100128228846A0
:101590006846FEF746FE94E80F0004F023F80226A2
:1015A000C8BB0021206804F00EFC002001270EE0DB
:1015B000C0EBC00104EB810181F83D7001F83C0FE4
:1015C000C880CD708D60CD60401CC0B24D61616837
:1015D0008142EDD8002011E0C0EBC00104EB810195
:1015E00081F8FD5181F8FC0181F8FF51C1F80452E6
:1015F000C1F80852401CC0B2C1F810526168814263
:10160000EAD8282241466846FEF70BFE94E80F0010
:1016100004F096F810B184F8BD63A2E784F838505E
:1016200084F8BD73206804F07FF800209AE700007A
:1016300010B586B0044614216846FEF70BFE2068FC
:10164000B0F1A04F2FD119480021026842F00102E9
:101650000260006800F0010005904FF4C050009057
:101660000220CDE90101032003900A20049069467D
:101670000F48FFF769F90D48001D016841F080012E
:1016800001600A481430016841F48041016000683B
:10169000002200F48040059011464320FFF79CFB98
:1016A0004320FFF78BFB06B010BD0000303802402E
:1016B0000000024070B50446C068012570B10228E0
:1016C00001D0FEF702FF2946D4F8040403F00BFD15
:1016D000D4F80404BDE8704003F0CBBC0025F2E769
:1016E000D0F8040403F0EDBCD0F8040403F0EFBC20
:1016F00010B5044690F8BC0301280BD0012084F8F3
:10170000BC0384F83810206804F074FB002084F8CF
:10171000BC0310BD022010BDD0F8042400F5717187
:10172000104603F0ECBC10B50446006894F8BC13F6
:10173000012906D0012184F8BC13A16A012902D035
:1017400008E0022010BDA169012903D0816B41F49A
:1017500080318163206803F0DBFF206804F0C0FA69
:10176000002084F8BC0310BD10B50446D0F8040472
:1017700003F004FD2068D0F8001E41F00101C0F81C
:10178000001E206A002804D00248016841F00601CA
:10179000016010BD10ED00E02DE9F843054600683A
:1017A0004FF00109C1074FF0000601D1400727D5CE
:1017B000DFF80C81C8F86860FFF7B0F90746414CC4
:1017C00005E000BFFFF7AAF9C01B022857D8206820
:1017D0000001F7D468688101287A41EA007039492C
:1017E00084310860C8F86890FFF798F9074604E06C
:1017F000FFF794F9C01B022841D820680001F7D5F3
:101800002878800752D52F484030016841F0805138
:10181000016000682C4C00F080500090206840F47B
:1018200080702060FFF77AF9074604E0FFF776F949
:10183000C01B022823D82068C005F7D5214C70347E
:10184000206810F4407020D0A98901F440718142D1
:101850001BD020681D4920F44070C1F800900E6034
:1018600020602068C00710D0FFF758F9064641F203
:10187000883707E0FFF752F9801BB84202D90320EE
:10188000BDE8F88320688007F4D5E9680D48C1F306
:1018900001220830032A0BD0016821F4F8110160FD
:1018A0002068A989C1F30B01084320600020E7E705
:1018B0000268074B22F4F81219400A430260EFE76E
:1018C000000047420038024000700040400E47428E
:1018D000FFFCFF0F2DE9F0470E46050065D0DFF84D
:1018E0001481D8F80000F7B200F00F00B04207D220
:1018F00088F80070D8F8000000F00F00B04254D112
:1019000028683D4C810712D5400703D5206840F474
:10191000E05020602878000703D5206840F460403C
:1019200020602068A96820F0F00008432060287833
:10193000C0072DD0304968680839012812D0022824
:1019400013D0032811D00968890700292DDA2168EE
:1019500021F0030101432160FFF7E0F8814641F2E5
:10196000883A0EE009688903EFE709688901ECE726
:10197000FFF7D4F8A0EB0901514502D90320BDE8D7
:10198000F0872068696800F00C00B0EB810FEFD1A0
:10199000D8F80010404601F00F01B14207D9077096
:1019A000006800F00F00B04201D00120E7E728787E
:1019B000400705D52068E96820F4E050084320601E
:1019C0002878000706D52068296920F4604040EA9D
:1019D000C100206000F03CF82168084AC1F30311FF
:1019E000515CC840064908600020FFF7AFF90020AD
:1019F000C5E70000003C02400838024008610008CA
:101A00007C00002001480068704700007C00002036
:101A10000448054900680968044AC1F38221515C01
:101A2000C84070477C000020083802401861000858
:101A30000448054900680968044AC1F34231515C11
:101A4000C84070477C000020083802401861000838
:101A5000154810B5006810F00C02144813D041105E
:101A6000042A0FD0082A0ED10F4C241F22682368A5
:101A700002F03F025B0207D52068C0F38810A0FB8C
:101A8000010106E0084610BD2168C1F38811A1FBE1
:101A900000010023FEF794FB2168C1F30141491CBA
:101AA0004900B0FBF1F010BD083802400024F400FA
:101AB000F0B51F4C16460D461D4B00210222032790
:101AC000283C0028186887B019D040F0040018603E
:101AD000186800F00400059010020090CDE9012183
:101AE000CDE9037169461348FEF72EFF206845EAE9
:101AF000C60120F078400843206007B0F0BD40F0F8
:101B000001001860186800F0010005904FF4807023
:101B10000090CDE90121CDE9037169460648FEF741
:101B200013FF2068354320F0EC602843E4E7000011
:101B30003038024000080240000002402DE9F84F12
:101B4000050076D02878DFF8F8B2BE4CC00749D03F
:101B5000DBF800105846C1F38101012908D0006864
:101B6000C0F3810002280AD1201D0068400206D57A
:101B70002068800336D568680028E2D032E06868C3
:101B8000B0F5803F10D0B0F5A02F206810D020F421
:101B900080302060206820F4802020606868A0B138
:101BA000FEF7BCFF06460CE0206840F48030F4E706
:101BB00040F480202060F7E7FEF7B0FF801B642828
:101BC00073D820688003F7D50CE0FEF7A7FF064620
:101BD00005E000BFFEF7A2FF801B6428F0D8206854
:101BE0008003F7D42878DFF8608280074FF000097F
:101BF0003ED5DBF80010584611F00C0F09D00068F4
:101C0000C0F3810002280BD18D48001F00684002FC
:101C100006D42068800715D5E868012809D111E0AD
:101C2000E868B8B10120C8F80000FEF777FF064663
:101C300005E002E1FEF772FF801B0228C0D8206891
:101C40008007F7D52068296920F0F80040EAC10034
:101C500020600DE0C8F80090FEF760FF064604E043
:101C6000FEF75CFF801B02281FD820688007F7D48E
:101C70002878000722D5724E744869696C3671B1B4
:101C800001210160FEF74AFF074604E0FEF746FF28
:101C9000C01B022809D830688007F7D50EE0C0F8CD
:101CA0000090FEF73BFF074605E083E0FEF736FFB6
:101CB000C01B02287ED830688007F7D428784007F8
:101CC00068D5DFF87CA100270AF1380ADAF80000AD
:101CD000C0000BD4DAF8001041F08051CAF80010AF
:101CE000DAF80000012700F080500090584E30686C
:101CF000C00510D4306840F480703060FEF70EFFED
:101D0000009005E0FEF70AFF0099401A022851D81A
:101D10003068C005F6D54A4EA868683601280FD04D
:101D20000528306810D020F001003060306820F0C5
:101D300004003060A868B8B1FEF7F0FE00900FE034
:101D4000306840F00100F4E740F004003060F7E74D
:101D5000FEF7E4FE0099411A41F28830814264D8CE
:101D600030688007F4D50EE0FEF7D8FE009007E05B
:101D7000FEF7D4FE0099411A41F28830814254D8CE
:101D800030688007F4D42FB1DAF8001021F08051C8
:101D9000CAF80010A869C0B3DBF80010C1F38101D4
:101DA00002294AD00228484607D0C8F86000FEF74A
:101DB000B5FE00E039E005463AE04746C8F8600065
:101DC000FEF7ACFE064604E0FEF7A8FE801B0228E4
:101DD0002BD820688001F7D4D5E907010843A96A08
:101DE0001C4A490802EB01416A6A41EA8211084330
:101DF00095F82C1040EA01611148001F0160012094
:101E00003866FEF78BFE054605E014E0FEF786FE19
:101E1000401B022809D820688001F7D50BE000BFDD
:101E2000FEF77CFE401B022802D90320BDE8F88F94
:101E300020688001F4D40020F8E70120F6E70000D4
:101E4000083802400038024000004742800E4742F6
:101E5000007000400000FFFF70B5040002D0607FFA
:101E600010B106E0012070BD00202077204600F070
:101E700049F8022060772168CA204862216853200F
:101E80004862204601F0B0FCFF25042618BB2068FC
:101E900081681B4A1140816021688868626810432C
:101EA000D4E904231A43104388602168E06808617C
:101EB00020680169228941EA024101612068C16804
:101EC00021F08001C16020688068800607D4204628
:101ED00000F0A6F918B1206845626677C2E720686D
:101EE000016C21F4802101642068016CA269114316
:101EF00001642068456201206077002070BD000009
:101F0000BFFF8FFF00680349884202D102490120C8
:101F100008607047002800403C0E47422DE9F05F02
:101F20000446007F0B46012840D04FF0010A84F898
:101F30001CA0022060772068002680684FEA40607D
:101F40009AB3002800DBDE7099781A78DD7841EAD0
:101F500002415A78D869120242EA0542114393F8C5
:101F6000202041EA0265054358695F680543986986
:101F700021680743CA204862216853204862586A92
:101F80004FF0FF08B0F5807F20684FF47A7B8168BE
:101F90002AD021F4007181602068816821F4005109
:101FA0008160FEF7BBFD81464BE002E00220BDE808
:101FB000F09F002800DBDE70187801F009FC0204B5
:101FC000587801F005FC42EA0022987801F000FC04
:101FD0000243D87842EA004293F8200001F0F8FB6F
:101FE00042EA0065D869BEE721F48071816020680B
:101FF000816821F480518160FEF790FD814605E003
:10200000FEF78CFDA0EB0900584513D82068C06886
:10201000C007F5D02068C5612068476420688168E2
:1020200041F4807119E000BFFEF778FDA0EB0900D4
:10203000584506D92168C1F82480032060772677A7
:10204000B5E72068C0688007EED520680562206883
:1020500087642068816841F4007181602168C1F85B
:10206000248084F81DA026770020A0E72DE9F04702
:102070000446007F0B4601281FD04FF0010984F869
:102080001C9002206077DAB19878D97840EA01454F
:1020900058781978000240EA413005432168CA2087
:1020A0004862216853204862204601F09DFB0026CB
:1020B000FF274FF0040860BB1AE00220BDE8F0875C
:1020C0005878C10603D500F0EF000A305870D87870
:1020D00001F07EFB0204587801F07AFB42EA00220C
:1020E000987801F075FB0243187842EA4035D5E74D
:1020F0000F480540206845602068C16821F08001D4
:10210000C1602068806880060AD4204600F088F804
:1021100030B12068476284F81D8026770120CDE722
:102120002068476284F81D9026770020C6E70000EB
:102130003FFFFF002DE9F0470446007F0D460128D0
:1021400027D04FF0010A84F81CA002206077206895
:10215000002680684FEA4060F2B1002800DBEE7094
:10216000A878297840EA01476878E978000240EACF
:10217000014007432168CA20486221685320486211
:10218000204601F031FB4FF0FF084FF00409A0BBDF
:1021900016E00220BDE8F087002800DBEE7028780A
:1021A00001F016FB0204687801F012FB42EA0022FB
:1021B000A87801F00DFB0243E87842EA0047D9E72E
:1021C00016480740206807602068816821F4802154
:1021D0008160D5E90301084321688A68104388605B
:1021E0002068C16821F08001C16020688068800695
:1021F0000BD4204600F014F838B12168C1F82480CF
:1022000084F81D9026770120C4E72168C1F8248056
:1022100084F81DA026770020BCE700007F7F7F00A8
:1022200070B504460068C16821F0A001C160FEF7E6
:1022300075FC05464FF47A7607E000BFFEF76EFCAA
:10224000401BB04201D9032070BD2068C0688006E1
:10225000F4D5002070BDFEB5044603200D4684F879
:102260003400606C032820D0B5F5805F1DD0B5F533
:10227000006F05D045B1A06B40F00060A06309E09D
:10228000204601F062FF02E0204601F037FFA16B1B
:102290000143A163A06B012658B1216840F2FF50B1
:1022A000886384F834600120FEBDA06B40F080504C
:1022B000E4E7211DD4E905700EC90095CDE9017050
:1022C000206801F0CAFA84F834600020FEBDF0B541
:1022D000426E120E93090B70C2F383034B7002F02F
:1022E00003028A70426E120CCA70B0F86420120A9F
:1022F0000A7190F864204A71826E4FF6FF73120ED5
:1023000003EA0212CA80826ECB88C2F3074243EA14
:102310001213CB8002F00F020A72B0F86820C2F3E9
:102320000722D3094B72C2F380138B72C2F340139E
:10233000CB72C2F300130B7300264E73446C4FF440
:10234000007701236CB1012C43D0026840F2FF51A9
:102350009163816B41F08051816380F834300120BA
:10236000F0BD9207120D0A6190F868200C6944EAEA
:1023700082020A61C26E0C69120E44EA92140C6168
:10238000C2F3C2040C7502F007024A75C26EC2F3B2
:10239000074254098C75C2F38204CC759207520F20
:1023A0000A76B0F86C20C2F307240A7E42EAD412FF
:1023B0000A760A69521C42650D7EAD1CAA40426530
:1023C0000D7A03FA05F585656D0A6A43C0E917279A
:1023D0001CE090F868209206920A0A61C26E0C69AD
:1023E000120E44EA02220A61C26E0C69C2F307426D
:1023F00014430C61B0F86C20C2F307240A69521C24
:102400004FEA82224265C0E916720766C4F3801261
:1024100001F8192F4FEA84624FEA52624A7010F8AD
:102420006C2F4C7844EAD2144C7002F07F028A7010
:1024300042684FEA12624FEAD214CC70C2F34114E0
:102440000C71C2F382044C714FEA82724FEA12722D
:102450008A7142688C79C2F3074244EA92148C7103
:10246000C2F34014CC710E7202F001024A728288EB
:10247000C2F307224FEAD2148C72C2F38014CC72DA
:10248000C2F340140C73C2F300144C73C2F3810402
:102490008C7302F00302CA7300794FEA500008748B
:1024A0004B744FF00000F0BD426C0A60826C4A60D1
:1024B000C26C8A60026DCA60426D0A61826D4A61B7
:1024C000C26D8A61006EC8610020704770B5044615
:1024D000B0F8500000250104206801F03CFB18B161
:1024E000A16B0143A16304E00021206801F0AFF972
:1024F0000546C5F3432070BD70B5040004D094F8C0
:102500003400002510B105E0012070BD257720467C
:1025100000F038F8032084F83400204600F008F872
:10252000A5632563012084F83400002070BD0000FD
:10253000FEB50025044676200095CDE901502B46D6
:102540002A462946206801F088F90D4E46F8A05F1A
:10255000206801F094F9012535600220FEF792F918
:10256000204601F07AFD20B9204601F003FD002845
:1025700005D084F83450A16B0143A1630120FEBD56
:10258000008025422DE9F04387B0044614216846B7
:10259000FDF760FE2249206888423ED121484FF075
:1025A0000009016841F400610160006800F4006006
:1025B00005901C481438016841F00401016001686D
:1025C00001F004010591016841F008010160006813
:1025D000022400F0080005904FF4706001278DE898
:1025E000910003250C26DFF84080CDE903566946AB
:1025F0004046FEF7A9F9E0028DE81102CDE9035645
:1026000069464046FEF7A0F904208DE89100CDE927
:10261000035669460548FEF797F907B0BDE8F08311
:10262000002C01404438024000080240000C0240E7
:102630002DE9F04F87B09A4617460E460446DDF85E
:1026400040B0FEF76BFA00903EB194F834000128D8
:1026500007D0A06B40F000500FE0A06B40F000608E
:102660000BE04FF00008C4F83880E06D07EB0A017A
:10267000814204D9A06B40F00070A0637DE003208C
:1026800084F834002068C0F82C80606C012800D0E9
:102690007F024FF40071206801F040F940F2FF59C9
:1026A000012530B12268C2F83890A16B0143A163C3
:1026B00061E04FF0FF3001904FEA4A2002909020F5
:1026C00003900220CDE90408069501A9206801F0D5
:1026D000A8F8BAF1010F06D9022020633946206814
:1026E00001F0AAF904E025633946206801F0BDF93C
:1026F0000028D7D140F22A382068416B11EA080F30
:1027000022D1406B000409D50027206801F0BBF8F6
:1027100046F827007F1C082FF7D32036BBF1000FA7
:1027200005D0FEF7FBF90099411A5945E4D3216819
:10273000C1F83890A06B40F00040A06384F834509A
:10274000032007B0BDE8F08F416BC90509D5BAF188
:10275000010F06D9616C032903D001F02DFA00287E
:10276000A0D12068416B090709D5C0F83890A06B4B
:1027700040F0080028E084F834500120E1E7416B84
:10278000890705D5C0F83890A06B40F002001BE027
:10279000416B89061AD5C0F83890A06B40F0200034
:1027A00012E000BF01F06FF801C6BBF1000F05D0C9
:1027B000FEF7B4F90099411A594507D32168C1F8C9
:1027C0003890A06B40F00040A063D4E72068416BD4
:1027D0008902E7D42168C1F8389084F83450002089
:1027E000AFE700002DE9F04F87B09A4616460D4638
:1027F0000446FEF793F906903DB194F834000128A1
:1028000007D0A06B40F000500DE0A06B40F00060DE
:1028100009E00020A063E26D06EB0A01914204D9B1
:10282000A06B40F00070A06390E0032184F83410A6
:1028300021688146C862606C012800D076024FF49E
:102840000071206801F06AF840F2FF58012730B1AA
:102850002268C2F83880A16B0143A16317E0BAF186
:10286000010F06D9202020633146206801F0BEF90F
:1028700005E0102020633146206801F0D0F9060001
:1028800008D02168C1F83880A06B3043A06384F879
:1028900034705BE04FF0FF3000904FEA4A20019027
:1028A000902002904846CDE90407CDF80C90B94637
:1028B0006946206800F0B5FF40F21A3B22E0406B09
:1028C00040040AD55FF0000705EB8701206800F09F
:1028D000EDFF7F1C082FF7D32035109830B1FEF79D
:1028E0001DF90699411A109881420BD32168C1F84D
:1028F0003880A06B3043A06384F83490032007B085
:10290000BDE8F08F2068416B11EA0B0FD7D0416B07
:10291000C9050FD5BAF1010F0CD9616C032909D093
:1029200001F04AF930B12268C2F83880A16B014346
:10293000A16309E02068416B090709D5C0F8388018
:10294000A06B40F0080014E084F834900120D6E732
:10295000416B890705D5C0F83880A06B40F00200B4
:1029600007E0416BC0F83880C90604D5A06B40F081
:102970001000A063E8E784F834900020BFE770B54A
:10298000040005D00025A56294F8510010B106E0BE
:10299000012070BD84F85050204600F031F802202C
:1029A00084F851002068016821F040010160D4E9F9
:1029B00001010843D4E90312114308436169084344
:1029C000218B01F400710843E1690843216A08433F
:1029D000A16A084321680860A069042101EA104047
:1029E000616A0843216848602068C16921F4006178
:1029F000C1616565012084F85100002070BD0000B0
:102A000070B586B0044614216846FDF723FC214EBC
:102A1000226800252049022305242048B24218D10B
:102A20001D4A1432166846F480561660126802F485
:102A3000805205920A6842F002020A60096801F0B9
:102A40000201059138218DE82A00CDE90334694659
:102A50001CE0134EB2421BD10F4A1032166846F4E6
:102A600080461660126802F4804205920A6842F0BD
:102A700002020A60096801F0020105914FF47041F9
:102A80008DE82A000321CDE903146946FDF75CFFB8
:102A900006B070BD003001403038024000040240F2
:102AA0000038004070B515460E46040003D094F877
:102AB000490010B107E0012070BD002084F84800F3
:102AC000204600F01AF804F108012068FDF742FDE5
:102AD0003146A2682068FDF767FDD4E90102294666
:102AE000236BFDF717FDA168206850F8212042F004
:102AF000010240F82120002070BDFDF7D5BE10B5C1
:102B0000401EB0F1807F01D3012010BD4FF0E024C2
:102B100060610F21601703F00FFA0020A061072009
:102B20002061002010BD7047704770B590F83C20C0
:102B3000012A19D0012400F83C4F0222427050F8BB
:102B40003C3C5A689D6822F070060A684968324326
:102B500025F0800529435A6050F83C2C9160447060
:102B600000210170084670BD022070BD10B5040040
:102B700003D094F83D0010B107E0012010BD002003
:102B800084F83C00204600F00DF8022084F83D0057
:102B9000211D206801F0F4FB012084F83D00002095
:102BA00010BD000008B500680B49884212D10B48DF
:102BB000016841F0100101600068002200F010007F
:102BC000009011463620FEF707F9BDE80840362090
:102BD000FEF7F4B808BD0000001000404038024085
:102BE000022180F83D1001688A6802F00702062A77
:102BF00003D00A6842F001020A60012180F83D100A
:102C0000002070470168CA6842F00102CA6000688B
:102C1000816801F00701062903D0016841F0010134
:102C2000016000207047704770B504460068016974
:102C30004FF00005C943890715D4C168C943890706
:102C400011D4E91E01610120207720688069800786
:102C5000204602D0FFF7E7FF04E000F098F8204696
:102C600000F096F8257720680169C943490717D411
:102C7000C168C943490713D46FF004010161022000
:102C800020772068806910F4407F204602D0FFF74B
:102C9000CAFF04E000F07BF8204600F079F82577C1
:102CA00020680169C943090716D4C168C9430907E7
:102CB00012D46FF008010161042020772068C069F8
:102CC0008007204602D0FFF7AEFF04E000F05FF877
:102CD000204600F05DF8257720680169C943C906E0
:102CE00017D4C168C943C90613D46FF0100101613C
:102CF000082020772068C06910F4407F204602D069
:102D0000FFF791FF04E000F042F8204600F040F8A1
:102D1000257720680169C943C90708D1C168C9433B
:102D2000C90704D1891E0161204600F032F82068ED
:102D30000169C943090609D4C168C943090605D414
:102D40006FF0800101612046FFF7EDFE2068016908
:102D5000C943490609D4C168C943490605D46FF07F
:102D600040010161204600F015F820680169C9435F
:102D700089060BD4C168C943890607D46FF02001C6
:102D800001612046BDE87040FFF7CEBE70BD7047C0
:102D9000704770477047704770B502680446106806
:102DA000D168536910F00F0F50D003F0010501F402
:102DB000907635435DD0C20705D0CA0503D5E26BD6
:102DC00042F00102E263420705D5DA0703D0E26B65
:102DD00042F00202E263820705D5DA0703D0E26B14
:102DE00042F00402E263020705D5DA0703D0E26B82
:102DF00042F00802E263E26B002A33D0800604D579
:102E0000880602D5204601F035FB20684069E16B59
:102E1000C0F38010090700D428B3204601F01CFB42
:102E20002068416949061AD5416921F04001416194
:102E3000606BA0B11B490165606BFDF7D7FB0028F3
:102E400010D0606B016DBDE870400847830610D557
:102E50008B060ED52046BDE8704001F00BBB204626
:102E6000FFF799FF70BD2046FFF795FF0020E06354
:102E700070BD030606D50B0604D52046BDE870409C
:102E800001F09ABC4006F3D54806F1D5D16820463A
:102E900021F04001D160202184F8391000F052F96E
:102EA00070BD00004944000870B5040004D094F8D7
:102EB0003900002510B106E0012070BD84F83850BB
:102EC000204600F023F8242084F839002068C168E7
:102ED00021F40051C160204601F018FB206801690F
:102EE00021F4904101612068416921F02A0141618A
:102EF0002068C16841F40051C160E563202084F876
:102F0000390084F83A00002070BD00002DE9F0433C
:102F100087B0064614216846FDF79CF95448DFF84F
:102F20004CC13568524C1038032102220123514F05
:102F30004FF00009654516D1256845F40025256048
:102F4000246804F400240594046844F00104046037
:102F5000006800F0010005908DE80E000820CDE922
:102F6000031069467DE0DFF810C14FF007086545A2
:102F70005CD13F4D4C462D1DD5F800C04CF0100CD7
:102F8000C5F800C02D6805F010050595056845F0E9
:102F9000010505600068CDE9023100F001000590EF
:102FA0004FF4C060CDE90002CDF810806946384684
:102FB000FDF7CAFC324D31484FF00067E5E80207E3
:102FC00040204FF48068A5E811014FF4803945F89E
:102FD00014492B48AC61C5E907496C62FDF7E8FB71
:102FE00008B1FDF772FA3563AE63254D23486035AD
:102FF00078382860C5E90174C5E903486C61AC61A3
:10300000C5E9074928466C62FDF7D2FB08B1FDF718
:103010005CFA7563002211462520AE63FDF7DCFEE5
:103020002520FDF7CBFE07B0BDE8F083154EB54275
:10303000F9D1256845F400352560246804F400348E
:103040000594046844F0010404600068CDE902318D
:1030500000F0010005900C20CDE90002CDF81080B1
:1030600069463846FDF770FCDDE70000004C004083
:10307000403802400000024000100140B8640240A5
:10308000980400200044004070472DE9F8430446AE
:1030900090F839001F4616460D46202850D1A5B19C
:1030A0009EB194F8380001284AD0012084F83800F5
:1030B0004FF00008C4F83C80212084F83900FDF767
:1030C0002DFDA6848146E68426E00120BDE8F88334
:1030D000E08C401EE084A0684B46B0F5805F4FF066
:1030E00000024FF080012046009703D001F095FBCD
:1030F000E8B90DE001F091FBC8B928882168C0F358
:1031000008004860206908B16D1C05E0AD1C03E0B3
:10311000216815F8010B4860E08C0028D8D14B4697
:10312000002240212046009701F077FB08B10320E0
:10313000CCE7202084F8390084F838800020C5E7E7
:103140000220C3E77047FEE7F0B500230A243025CC
:1031500037261F4611E000BFB4EB107F02D905EB04
:10316000107C01E006EB107C01F813C001EB430C6E
:1031700000015B1C8CF80170DBB29342ECD3F0BD14
:103180000D4808B5016841F4800101600068002223
:1031900000F48000009011463A20FDF71DFE3A2011
:1031A000FDF70CFE002211464620FDF715FEBDE896
:1031B00008404620FDF702BE3038024010B50449F1
:1031C0000448FDF783F90249491E087010BD00004C
:1031D00002000020EC60000800B587B01C216846A2
:1031E000FDF738F815484FF02041102201601449CE
:1031F000416000218160C160C0E904128161C16148
:1032000013020162C0E90913C16201634163816372
:1032100041640F20FF230090CDE90103CDE90302B3
:103220001120CDE90501002269460448FFF73AFC68
:10323000002801D0FDF749F907B000BDA00100202A
:10324000040100A0F0B587B014216846FDF702F82C
:103250003A480024016841F010010160016801F062
:1032600010010591016841F004010160016801F05D
:1032700004010591016841F080010160016801F0DD
:1032800080010591016841F001010160016801F0D0
:1032900001010591016841F002010160016801F03E
:1032A00002010591016841F0080101600068244EA7
:1032B00000F0080005900022C0213046FDF728FCF0
:1032C000204F0022C3213846FDF722FC1820CDE90B
:1032D000000469461C480294FDF736FBC0200090AC
:1032E0000125CDE90154694630460394FDF72CFBD6
:1032F0003020CDE90004694614480294FDF724FB10
:10330000C3200090CDE90154694638460394FDF787
:103310001BFB2D0202200095CDE9010403946946B0
:1033200030460494FDF710FBCDE900546946384659
:103330000294FDF709FB07B0F0BD000030380240F1
:103340000000024000040240001002400008024059
:103350000D4810B50B4901600C49416000214FF444
:1033600080428160C0E9031241618161C1610162F3
:10337000FDF7DAFB002803D0BDE81040FDF7A5B843
:1033800010BD000000580040F0010020A0860100A0
:1033900030B591B014210AA8FCF75CFF0024282165
:1033A00068460F94FCF756FF27482649C0E90014E9
:1033B0007F218160FF21C0E9031444618461FEF72D
:1033C0004BFD08B1FDF781F88DF828408DF82940B4
:1033D0008DF82A400D9401220AA91B480E94FEF78D
:1033E000A9FE08B1FDF771F801258DF83C508DF864
:1033F0003D508DF83E508DF83F402A460FA91248A7
:10340000FEF734FE08B1FDF760F88DF800408DF846
:10341000014004944FF480708DF8024001940394AD
:1034200009900594069407948DF82050012269466E
:103430000548FEF773FD002801D0FDF746F811B0EE
:1034400030BD000000280040440200200648054925
:103450000160002141608160C16001614161816161
:1034600070470000002C014064020020104810B595
:103470000E4901604FF48271416000218160C1609A
:103480004FF400720161C0E905122022C0E9072152
:10349000416281620A21C162FFF771FA002803D0FC
:1034A000BDE81040FDF711B810BD0000003001402C
:1034B000E8020020104810B50E4901604FF48271F7
:1034C000416000218160C1604FF480220161C0E948
:1034D00005122022C0E90721416281620A21C162EE
:1034E000FFF74DFA002803D0BDE81040FCF7EDBF10
:1034F00010BD000000380040400300201CB500242F
:103500000F4800940D490194016045F20721C0E97C
:10351000011440F2F3118461C160FFF727FB08B189
:10352000FCF7D3FF2020CDE9000469460448FFF7EB
:10353000FCFA002801D0FCF7C8FF1CBD00100040B9
:10354000980300200C4810B50A4901604FF4E1319E
:103550004160002181600C22C160C0E904128161D8
:10356000C161FFF7A1FC002803D0BDE81040FCF7C3
:10357000ACBF10BD004C0040D80300200C4810B573
:103580000A4901604FF4E1314160002181600C2261
:10359000C160C0E904128161C161FFF785FC0028A8
:1035A00003D0BDE81040FCF790BF10BD00100140F3
:1035B000180400200C4810B50A4901604FF4E131AD
:1035C0004160002181600C22C160C0E90412816168
:1035D000C161FFF769FC002803D0BDE81040FCF78B
:1035E00074BF10BD004400405804002010B50022F4
:1035F0000F49104801F008FC08B1FCF766FF0E49BE
:103600000C4801F0E1FD08B1FCF75FFF0B490948E8
:1036100001F022FA08B1FCF758FF064801F02AFE33
:10362000002803D0BDE81040FCF74FBF10BD0000DC
:1036300010000020580500205C01002060000020E0
:10364000FEE770470148FDF747BD0000F407002082
:103650002DE9F041044600680E46016C00EB46156A
:10366000D5F8080B276920234FF40042012F08D01A
:103670002C4FB9424FD1010449D500BFC5F8082BE2
:103680004DE0DFF8A4C05FEA007E04F5717711D544
:10369000614503D9000401D5C5F8082B2046FEF783
:1036A0003BF83A460121206802F0A2F90820C5F84B
:1036B000080B34E05FEA806E02D5C5F8083B2EE0C7
:1036C00010F0280F2BD1614501D90004D6D4C6EBE8
:1036D000C60004EB8000D5F8102BD0F80412C2F31A
:1036E00012028A1AC0F81422D0F808221144C0F835
:1036F0000812F1B22046FDF7D5FB86B9D4F81002C6
:1037000068B93A460121206802F072F907E08006A4
:1037100001D5C5F8083BF1B22046FDF7C3FB0020F8
:10372000BDE8F0810A31544F0A30544F2DE9F84F6B
:103730000E46C1EBC60100EB810481460568D4E961
:1037400014103C34884202D90120BDE8F88F081AD1
:10375000A168814200D20846C01C870805EB4618C4
:103760001BE000BFA0EB010AA068504500D28246D2
:103770000AF10300870899F8100000901FFA8AF3F5
:10378000F2B22846E16802F0BBFBE16801EB0A00F7
:10379000E060A16901EB0A00A061D8F8180980B2C5
:1037A000B84205D3D4E90501814201D20028D9D11C
:1037B000D4E90501884208D806F00F0101208840AD
:1037C000D5F834188143C5F834180020BDE7704798
:1037D000002102E00A38C0B2491C0A28FAD20907BF
:1037E00040EA11607047000070B504460068C16887
:1037F000490614D44FF0FF31C160FDF78FF905463B
:103800004FF47A7607E000BFFDF788F9401BB0421D
:1038100001D9032070BD2068C0684006F4D500209F
:1038200070BD0A6842624A688262D1E902231A4383
:10383000D1E904310B43C16A1A4321F0F701114366
:10384000C16200207047006800F00300704708B5AF
:10385000084414300090006808BD70B50DF1100CDC
:1038600011439CE8700023431943294342683143C4
:1038700047F6FF639A430A434260002070BD03216C
:10388000016000207047D0F8800070470A688260AD
:10389000D1E901231A43D1E903310B43C1681A432B
:1038A0006FF30B011143C160002070470968C0F835
:1038B00080100020704710B586B004463720CDE94F
:1038C000001040200290002003904FF4806004908C
:1038D00069462046FFF7DAFF41F288323721204659
:1038E00000F0B6F906B010BD10B504460A4886B01F
:1038F00001432920CDE900104020029000200390D0
:103900004FF48060049069462046FFF7BFFF2046D1
:1039100000F054FA06B010BD0000108010B586B05B
:1039200004461020CDE900104020029000200390B2
:103930004FF48060049069462046FFF7A7FF41F2EC
:1039400088321021204600F083F906B010BD10B572
:1039500086B004460620CDE90010402002900020E9
:1039600003904FF48060049069462046FFF78EFF75
:1039700041F288320621204600F06AF906B010BDF7
:1039800030B585B000240546009401944FF4806062
:103990000294CDE9034069462846FFF777FF0B48BC
:1039A0004FF4FA510068B0FBF1F041F2883148431E
:1039B000401E03D24FF0004005B030BD696B0906D0
:1039C000F6D540F2FF50A8632046F5E77C000020C2
:1039D00070B585B004464FF4D5700090082040269D
:1039E000CDE901060025C001CDE903506946204616
:1039F000FFF74CFF0F484FF4FA510068B0FBF1F0AD
:103A000041F288314843401E02D24FF000450DE09C
:103A1000616B11F0450FF6D0606B400702D5A663CD
:103A2000042503E0606B400600D5A66305B0284678
:103A300070BD00007C00002010B586B00446122046
:103A4000CDE9001040200290002003904FF48060E8
:103A5000049069462046FFF719FF41F2883212218F
:103A6000204600F0F5F806B010BD10B586B004464B
:103A70001120CDE9001040200290002003904FF467
:103A80008060049069462046FFF700FF41F28832CB
:103A90001121204600F0DCF806B010BD10B586B04C
:103AA00004460720CDE9002040200290002003902A
:103AB0004FF48060049069462046FFF7E7FE41F22C
:103AC00088320721204600F0C3F806B010BD10B5BB
:103AD00086B0044600210220CDE90010C020CDE9C7
:103AE00002014FF48060049069462046FFF7CEFE45
:103AF000204600F03BF906B010BD10B586B0044674
:103B00000920CDE90010C0200290002003904FF45E
:103B10008060049069462046FFF7B8FE204600F01A
:103B200025F906B010BD10B586B00446002133203B
:103B3000CDE900104020CDE9020100010490694662
:103B40002046FFF7A3FE41F288323321204600F0E1
:103B50007FF806B010BD10B586B004460D20CDE943
:103B6000001040200290002003904FF480600490E9
:103B700069462046FFF78AFE41F288320D21204631
:103B800000F066F806B010BD30B585B00C460546AD
:103B900000210320CDE900104020CDE90201000101
:103BA000049069462846FFF771FE22460321284605
:103BB00000F024F905B030BD10B586B004460021F0
:103BC0000C20CDE900104020CDE902010001049055
:103BD00069462046FFF75AFE034A0C21204600F0B2
:103BE00037F806B010BD000000E1F50510B586B04D
:103BF00004461920CDE900104020029000200390D7
:103C00004FF48060049069462046FFF73FFE41F282
:103C100088321921204600F01BF806B010BD10B5FF
:103C200086B004461820CDE9001040200290002004
:103C300003904FF48060049069462046FFF726FE0B
:103C400041F288321821204600F002F806B010BD7B
:103C5000444B10B51B684FF4FA54B3FBF4F35343D1
:103C60005B1E02D24FF0004010BD426B12F0450FB8
:103C7000F6D0426B520703D504218163084610BD7C
:103C8000426BD20702D00121816303E00269D2B204
:103C90008A4201D0012010BD40F2FF518163002112
:103CA000FFF7D5FD3049084201D1002010BD0028A2
:103CB00002DA4FF0007010BD410001D5402010BD68
:103CC000810001D5802010BDC10002D54FF4807065
:103CD00010BD010102D54FF4007010BD410102D5A5
:103CE0004FF4806010BDC10102D54FF4006010BDDB
:103CF000010202D54FF4805010BD410202D54FF4AD
:103D0000005010BD810202D54FF4804010BDC102A9
:103D100002D54FF4004010BD410302D54FF40030EE
:103D200010BD810302D54FF4802010BDC10302D520
:103D30004FF4002010BD010402D54FF4801010BDD7
:103D4000410402D54FF4001010BD810402D54FF498
:103D5000800010BD000702D54FF4000010BD4FF4E5
:103D6000803010BD7C00002008E0FFFD12494FF4B8
:103D7000FA520968B1FBF2F141F288325143491E0F
:103D800002D24FF000407047426B12F0450FF6D060
:103D9000416B490703D50421816308467047416B95
:103DA000C90703D0012181630846704740F2FF51E3
:103DB00081630020704700007C0000200E494FF412
:103DC000FA520968B1FBF2F141F288325143491EBF
:103DD00002D24FF000407047426B12F0450FF6D010
:103DE000416B490703D5042181630846704740F2BF
:103DF000FF518163002070477C0000201F4B10B5ED
:103E00001B684FF4FA54B3FBF4F341F28834634374
:103E10005B1E02D24FF0004010BD446B14F0450F02
:103E2000F6D0436B5B0703D504218163084610BDC0
:103E3000436BDB0702D00121816303E00369DBB23E
:103E40008B4201D0012010BD40F2FF51816300215F
:103E5000FFF7FDFC10F4604F04D0410406D54FF489
:103E6000005010BD000C1080002010BD000402D5D1
:103E70004FF4805010BD4FF4803010BD7C00002006
:103E800010B5064C01202070FCF75EFA18B92078B6
:103E900020F001002070207810BD000000000020FC
:103EA0002DE9F04F89B00E460446FCF737FE002599
:103EB0008346009501952F4608212068FFF72EFDC7
:103EC000002834D1B4F8500001042068FFF7F3FC57
:103ED00000282CD1401E4FF00808CDE90208302000
:103EE0004FF00209CDE904090120CDE9067002A9CD
:103EF0002068FFF796FC2068FFF715FE002816D112
:103F0000EA4640F22A472068416B394212D1416BA0
:103F1000890204D5FFF7B7FC4AF825006D1CFCF7B1
:103F2000FDFDA0EB0B00401CEDD14FF0004009B0AF
:103F3000BDE8F08F416B090703D5C0F83880082031
:103F4000F5E7416B890703D5C0F838900220EEE70A
:103F5000416B890603D5202181630846E7E740F2DB
:103F6000FF518163009800BA7060019800BA306018
:103F70000020DCE710B590B004460120ADF8380011
:103F80002068FFF760FC002864D0606C032842D0F2
:103F90002068FFF79CFD00285AD100212068FFF718
:103FA00056FC606704212068FFF751FCA0670821D8
:103FB0002068FFF74CFCE0670C212068FFF747FC06
:103FC000C4F88000606C032825D00EA92068FFF794
:103FD000DBFD00283CD1606C03281CD0BDF8380004
:103FE000206501042068FFF788FD002830D10021FA
:103FF0002068FFF72CFC606604212068FFF727FC8F
:10400000A06608212068FFF722FCE0660C212068EA
:10401000FFF71DFC206704212068FFF718FC000D46
:10402000E06403A92046FEF752F9B4F850000023DB
:1040300002042068FFF732FD002809D104F11000C6
:1040400007C88DE8070094E80F00FFF706FC002082
:1040500010B010BD4FF08060FAE72DE9F84300255D
:10406000044600950068FFF78BFC00281AD12068F1
:10407000FFF7AEFC4FF080784FF6FF76D8B14FF0E7
:104080008057A5640098411C0091B0421AD00021CD
:104090002068FFF710FC20B900212068FFF724FCFE
:1040A00010B13846BDE8F88300212068FFF7CFFB48
:1040B000C00FE7D01FE00127A7640098411C0091C2
:1040C000B04201D14046EDE700212068FFF7F3FB45
:1040D0000028E7D14FF080412068FFF705FC002859
:1040E000E0D100212068FFF7B2FBC10FE5D040000E
:1040F00001D5676400E065640020D3E71CB5044681
:1041000000200090019000212068FFF7A0FB8001B3
:1041100002D54FF400601CBD69462046FFF7C0FE83
:104120000028F8D10198C0030CD5B4F85000010460
:104130002068FFF7C0FB0028EDD100212068FFF7C1
:1041400006FC1CBD4FF080601CBD1CB50446002061
:104150000090019000212068FFF779FB800102D5D3
:104160004FF400601CBD69462046FFF799FE002809
:10417000F8D1019840030CD5B4F850000104206830
:10418000FFF799FB0028EDD102212068FFF7DFFB44
:104190001CBD4FF080601CBD70B5064C054601206B
:1041A0002070FCF7DDF818B92846FFF769FE20708B
:1041B000207870BD0000002010B5124888B0144669
:1041C0000078C00702D0032008B010BDC1B101299A
:1041D00005D0022908D003290CD00420F4E7684652
:1041E000FCF7ACF806980AE06846FCF7A7F80798D1
:1041F000208005E06846FCF7A1F80798400A206097
:104200000020E1E70000002070B51D461646084674
:104210000124A31E2A463146FCF7C8F828B900BF7E
:10422000FCF792F80028FBD10024204670BDFFF770
:1042300027BE000070B51D46164608460124A31E81
:104240002A463146FCF7C2F828B900BFFCF77CF8D3
:104250000028FBD10024204670BD7047FCF754BDF8
:1042600030B597B030216846FBF7F4FF14210CA855
:10427000FBF7F0FF0025244811951295139514952E
:10428000016841F080510160006800F08050159095
:104290001E48016841F4804101600068102100F46B
:1042A000804015900B2000904FF480300190012049
:1042B000CDE903010224CDE905048005079004201F
:1042C0000890A820CDE9090407200B906846FDF767
:1042D00035FC0CA90F2081E831004FF4C0500F903D
:1042E000E002109005210CA8FDF7F4FA20021490CA
:1042F000119411A8FDF750FA002211461046FDF75F
:10430000D7FB17B030BD00004038024000700040BD
:104310001048016841F4700101600F48016841F0E4
:10432000010101600C4A00210832116002680B4B48
:104330001A400260031D0A4A1A60026822F48022B1
:10434000026005480C300160024958068039086057
:104350007047000088ED00E000380240FFFFF6FEE5
:104360001030002410B50448FEF75EFCBDE8104094
:1043700040210248FCF7C5BB980300200000024022
:10438000F0B50268254C264D264E274F274B4FF09F
:10439000804CA04209D0604507D0A84205D0B04269
:1043A00003D0B84201D0984204D122F0700E4A687E
:1043B00042EA0E02A0421BD0604519D0A84217D095
:1043C000B04215D0B84213D0984211D0184DA8422F
:1043D0000ED0184DA8420BD0174DA84208D0174D4B
:1043E000A84205D0164DA84202D0164DA84203D1CE
:1043F00022F44075CA682A434D6922F080022A439C
:1044000002608A68C2620A688262A04201D0984251
:1044100001D10969016301214161F0BD0000014042
:104420000004004000080040000C0040000401406F
:104430000040014000440140004801400018004095
:10444000001C00400020004010B5806B0021C18599
:10445000C184FEF7A0FC10BD0168CA6822F4907206
:10446000CA6001684A6922F001024A61202180F88D
:104470003A10704710B590F83A10222901D0022066
:1044800010BD8168B1F5805F11D001690029016814
:104490001FD0496801F07F03816A4A1C82620B7059
:1044A000C18D491E0904090CC18518D02BE0026991
:1044B000816A002A0268526805D0D2B20A80816AF5
:1044C000491C8162ECE7C2F308020A80816A891CF8
:1044D000F7E74A68816A4B1C83620A70E0E701686B
:1044E000CA6822F02002CA600168CA6822F4807299
:1044F000CA6001684A6922F001024A61202180F8FD
:104500003A10FEF7C1FD002010BD00002DE9F0417A
:10451000044600680169E26821F4405111430161D9
:104520002169A068E2690843616911432268084370
:10453000D16849F20C6399430143D1602068416915
:10454000A26921F4407111434161E2696425B2F529
:10455000004F9748974922684FF032083FD08A426F
:1045600001D082427CD1FDF763FA00EBC00101EB80
:10457000001061688900B0FBF1F6FDF759FA00EB15
:10458000C00101EB001061688900B0FBF1F0B0FBE5
:10459000F5F06FF01801484306EB800108EB0110BD
:1045A000B0FBF5F000F0F006FDF742FA00EBC001B9
:1045B00001EB001061688900B0FBF1F0B0FBF5F091
:1045C00006EB0016FDF734FA00EBC00101EB00101A
:1045D00061688900B0FBF1F7FDF72AFAD2E08A4260
:1045E00001D082423DD1FDF723FA00EBC00101EB7F
:1045F000001061684900B0FBF1F0B0FBF5F0060176
:10460000FDF716FA00EBC00101EB001061684900EC
:10461000B0FBF1F7FDF70CFA00EBC00101EB001065
:1046200061684900B0FBF1F0B0FBF5F06FF01801E4
:10463000484307EB800108EBC100B0FBF5F000F048
:10464000F80006EB4006FDF7F3F900EBC00101EBC3
:10465000001061684900B0FBF1F7FDF7E9F93CE0B3
:1046600055E0FDF7D5F900EBC00101EB00106168E2
:104670004900B0FBF1F0B0FBF5F00601FDF7C8F919
:1046800000EBC00101EB001061684900B0FBF1F7DD
:10469000FDF7BEF900EBC00101EB001061684900B5
:1046A000B0FBF1F0B0FBF5F06FF01801484307EBF9
:1046B000800108EBC100B0FBF5F000F0F80006EB5C
:1046C0004006FDF7A5F900EBC00101EB00106168A1
:1046D0004900B0FBF1F7FDF79BF900EBC00101EBDE
:1046E000001061684900B0FBF1F0B0FBF5F06FF02D
:1046F0001801484307EB800108EBC100B0FBF5F05F
:1047000000F00700216830448860BDE8F081FDF7C3
:104710007FF900EBC00101EB001061688900B0FB7C
:10472000F1F6FDF775F900EBC00101EB00106168CF
:104730008900B0FBF1F0B0FBF5F06FF018014843D1
:1047400006EB800108EB0110B0FBF5F000F0F0067D
:10475000FDF75EF900EBC00101EB00106168890014
:10476000B0FBF1F0B0FBF5F006EB0016FDF750F9E9
:1047700000EBC00101EB001061688900B0FBF1F7AC
:10478000FDF746F900EBC00101EB001061688900FC
:10479000B0FBF1F0B0FBF5F06FF01801484307EB08
:1047A000800108EB0110B0FBF5F000F00F00A9E765
:1047B000001401400010014090F83910212901D067
:1047C000022070478168B1F5805F016A0BD04A1CF6
:1047D0000262026809785160C18C491E0904090C03
:1047E000C1840ED017E009880268C1F30801516046
:1047F00001690029016A02D0491C0162ECE7891CA9
:10480000FBE70168CA6822F08002CA600068C168DC
:1048100041F04001C160002070472DE9F041984609
:1048200017460E460446069D1DE0681C1BD02DB1A0
:10483000FCF774F9A0EB0800A84214D92068C168FD
:1048400021F4D071C1602068416921F0010141610A
:10485000202084F8390084F83A00002084F83800D9
:104860000320BDE8F0812068006836EA000004D02B
:104870000020B842D9D00020F3E70120F9E700007A
:104880000148FEF789BA0000180400202DE9F04124
:10489000D0F89832D0F89022DAB101EB810400EB25
:1048A00084040025E6694EB1C1EBC10703EB870321
:1048B0005B6CB6FBF3F703FB176323B1C2F814522A
:1048C0000020BDE8F08100231A46E56100F05FFC9E
:1048D000F6E70220F5E770B50546D0F8904200F003
:1048E0006BFBC4F80C02D5F8900248B1D5F89412CD
:1048F000D4F80402CA6804F503719047002070BD23
:10490000022070BD70B504460026812100F09AFA9D
:10491000002501212046E56200F094FA822120461C
:10492000C4F8585100F08EFA2564D4F8900248B1CA
:10493000D4F8940204F5247440688047206801F09C
:1049400037FB2560304670BD10B5D0E9A44159B1A0
:1049500094F80002FF2807D08B6894F801222146C2
:104960009847FF2084F80002002010BD0A21018032
:1049700000487047840000204321018000487047B0
:10498000D40000204321018000487047900000209F
:104990004321018000487047180100202DE9F041B3
:1049A00004460026007C4FF40077012590B3402395
:1049B00002228121204600F047FB4023E5620222CB
:1049C0000121204600F040FB0823032282212046DB
:1049D000C4F8585100F038FB4FF40770256401F01B
:1049E0004FFBC4F89002F8B10546D4F89402006871
:1049F00080470020C5F81402C5F81802207CD5F8BD
:104A0000042298B140230121204600F029FB3046C2
:104A1000BDE8F081FFE73B4602228121204600F0FD
:104A200013FB3B46E562CAE70126F0E73B46EAE7AF
:104A300010B5D0F8901269B1027C002AD1F8042296
:104A400005D04023012100F00BFB002010BD4FF4E6
:104A50000073F7E7022010BD02460220002902D0B1
:104A60000020C2F894127047D0F89002C0F80412E7
:104A700000207047D0F89002C0F81022C0F8081249
:104A8000002070472DE9FC410546D0F890720020C7
:104A90008DF80000ADF80400064608780C4610F0CA
:104AA000600121D020293BD1E288AAB100066078BC
:104AB00007D5D5F894128B6839469847E28839466D
:104AC00026E087F80002A07987F80102E2883946DB
:104AD000284600F04FF828E0D5F8941260780022BC
:104AE0008B682146984720E0607820B10A2809D0D9
:104AF0000B2815D110E095F87402032810D102227A
:104B000001A905E095F87402032809D1012269463C
:104B1000284600F049F808E095F87402032804D00C
:104B20002146284600F01BF802263046BDE8FC81ED
:104B300010B5D0F88C2252689047002010BD134663
:104B400010B50A46002100F08BFA002010BD134674
:104B500010B50A46002100F01AFB002010BD10B568
:104B60000446802100F0F8FA2046BDE810400021FC
:104B700000F0F2BA10B50323C0F84821C0F86C3237
:104B8000C0F84C2113460A46002100F069FA0020C3
:104B900010BD10B505210023C0F86C121A46194645
:104BA00000F05EFA002010BD10B50223C261C0F80B
:104BB0006C32026213460A46002100F0E8FA002037
:104BC00010BD10B504210023C0F86C121A46194616
:104BD00000F0DDFA002010BD10B50A46024903A01E
:104BE00000F0E2F8004810BDFC0B002043444320D5
:104BF000436F6E66696700001220088000487047A6
:104C00003000002010B50A46024903A000F0CCF89D
:104C1000004810BDFC0B002043444320496E7465DE
:104C200072666163650000000420088000487047D8
:104C30002C00002010B50A46024903A000F0B4F889
:104C4000004810BDFC0B002053544D6963726F6522
:104C50006C656374726F6E696373000010B50A4609
:104C6000024903A000F0A0F8004810BDFC0B002092
:104C700053544D3332205669727475616C20436F02
:104C80006D506F727400000010B51A2008800A4839
:104C90000168001D0468001D0068081809D008227A
:104CA0000649FEF751FA0549042210312046FEF765
:104CB0004BFA0248801E10BD107AFF1F46000020EC
:104CC000F8B5044648880D46010A08294BD2DFE8AA
:104CD00001F04A0409174A4A4048D4F88812207C57
:104CE0000A6832E0207C02260028D4F88C0205D025
:104CF000C16A684688470146467041E0816AF8E724
:104D0000C0B206282FD2DFE800F003080D12171CEE
:104D1000D4F88812207C4A6817E0D4F88812207CE6
:104D20008A6812E0D4F88812207CCA680DE0D4F8B2
:104D30008812207C0A6908E0D4F88812207C4A692D
:104D400003E0D4F88812207C8A69694690470146BE
:104D500016E0207C38B9D4F88C02416B684688474D
:104D6000F5E7207C20B129462046FFF7F8FEF8BD84
:104D7000D4F88C02016B68468847014607204870CA
:104D8000BDF8000048B1EA8852B1824200D902461B
:104D9000ADF800202046FFF707FFE8880028E6D19D
:104DA0002046FFF70EFFF8BD70B5002300281ED087
:104DB0000446002502E06D1CEDB2641C2678002E2E
:104DC000F9D1022404EB450414801278CA545B1C08
:104DD0000322CA5400245B1C06E0CA545B1CDAB2EE
:104DE0008C54521CD3B2401C0278002AF5D170BDFD
:104DF00001004FF0000004D0012901D0022901D0A8
:104E0000022070470120704710B580B1D0F88C3275
:104E100013B10023C0F88C3209B1C0F88812012107
:104E200080F87412027000F0CBF8002010BD022050
:104E300010BD10B5D0F89802FCF768F8BDE8104036
:104E4000FFF7D6BF10B5D0F89802FCF739F8BDE8E7
:104E50001040FFF7CDBF2DE9F0411746044651B190
:104E6000D4F88C0242691AB194F87402032851D024
:104E70000220BDE8F081D4F86C32002504F1140062
:104E8000022B03D0042B3AD0C3B33CE0D0E9036338
:104E90009E4207D9F11AC1608AB239462046FFF70F
:104EA00056FE12E08068B0FBF3F103FB110199B9E3
:104EB000984211D3D4F8701288420DD200221146C4
:104EC0002046FFF744FEC4F8705200231A461946E4
:104ED000204600F0C5F816E0D4F88C02C16829B16C
:104EE00094F87402032801D1204688478021204687
:104EF00000F032F92046FFF74CFE04E0FFE7802186
:104F0000204600F029F994F87802012804D184F8A9
:104F1000785201E0204690470020AAE770B5154678
:104F2000044649B1D4F88C0282691AB194F874022B
:104F3000032830D0022070BDD4F86C1204F5A070A4
:104F4000032902D005291ED027E0D0E903218A4297
:104F50000BD9531AC3600846834200D303469AB262
:104F600029462046FFF7EBFD17E0D4F88C020169D3
:104F700029B194F87402032801D1204688472046BD
:104F8000FFF71FFE09E000200146C4F86C0220462E
:104F900000F0E2F801E020469047002070BD0020BC
:104FA000704710B5012180F87412D0F88C22017975
:104FB00052689047002010BDD0F89802FBF7D4BF8C
:104FC00010B5017839BB15490222C1F80404C0F8B4
:104FD00098124FF0A0400860042048600020C1E90A
:104FE0000320C1E9062008624862C86208630846D7
:104FF000FCF7ACFA08B1FBF768FA80210748FBF729
:105000001EFF402200210548FBF71DFF80220121E1
:105010000248FBF718FF002010BD0000F407002035
:105020000A0601F07F01D0F89802C1EBC10100EB44
:10503000810002D590F83E00704790F8FE0170475D
:10504000002070470020704710B51C461346D0F86A
:1050500098022246FBF791FFBDE81040FFF7C8BE5B
:1050600010B5D0F89802FBF7B8FFBDE81040FFF785
:10507000BFBE70B50022044640231146FFF7E4FF8F
:1050800040260125C4F85061334600228021204685
:10509000C4F84451FFF7D8FF6662A56184F87452E2
:1050A0000020C4F86C026060C4F87C02D4F890025E
:1050B00028B1D4F88C020021426820469047002095
:1050C00070BD90F8751280F874120020704710B50A
:1050D00090F87412032904D1D0F88C12C96901B177
:1050E0008847002010BD01740020704710B5D0F82B
:1050F0009802FCF7FDFABDE81040FFF779BE70B5E5
:10510000044600F52070054600F04AF80120C4F876
:105110006C02B4F88602C4F8700294F8800210F0B1
:105120001F010AD001290DD0022910D000F0800102
:10513000204600F011F8002070BD2946204600F0FE
:105140009EF8F8E72946204600F0CAF9F3E7294619
:10515000204600F01DF9EEE710B5D0F89802FBF7F5
:1051600060FFBDE81040FFF743BE10B5D0F89802CD
:10517000FCF7D9FABDE81040FFF73ABE90F8741278
:1051800080F87512042180F874120020704710B561
:10519000D0F89802FBF77FFFBDE81040FFF728BE6C
:1051A0000A7802704A7842708A78CB7802EB032240
:1051B00042800A794B7902EB032282808A79C9798D
:1051C00002EB0121C18070470246002011B1C2F8F4
:1051D0008C1270470220704710B5D0F88C22022440
:1051E0001AB11268904700B90024204610BD000093
:1051F00070B50E461E4D897804462970012931D8B4
:1052000094F8740202280BD003280FD031462046B0
:10521000FFF7A5FC29782046BDE87040FFF788BC61
:10522000D9B10320616084F8740209E071B160684B
:10523000884212D0C1B22046FFF77AFC297861601B
:105240002046FFF7C9FF02280CD006E0022084F8B0
:10525000740220466160FFF76BFC2046BDE8704099
:10526000FFF7AFBC31462046BDE87040FFF777BC82
:105270008000002010B5FFF778FF002010BD2DE959
:10528000F0410A78002612F0600208D0202A01D0EE
:10529000402A70D1D0F88C22926890476DE04B780C
:1052A000002201250A2B66D2DFE803F0405D655736
:1052B000650805652C29FFF703FD5EE00446888834
:1052C000D8B9C888C8B94888802816D200F07F07A6
:1052D00094F87402032810D084F876723946204678
:1052E000FFF704FF2046FFF76CFC1FB1022084F893
:1052F000740242E084F874523FE020463BE0FFF73E
:1053000077FF3AE0CB88012B35D190F87432012B2E
:1053100004D0022B02D0032B2DD104E082600122A5
:1053200000F1080116E00122011D13E090F874223B
:10533000012A03D0022A01D0032A1CD1CA88022ADA
:1053400019D1C560D0F87C1209B10321C1600222D5
:1053500000F10C01FFF728FC0FE0498801290CD16E
:10536000C0F87C5211E090F87432012B08D0022B67
:1053700006D0032B04D0FFF7F2FB3046BDE8F081E6
:1053800049880129F9D1C0F87C22FFF71AFCF4E71B
:105390002DE9F0410A46044610780027097910F0FB
:1053A00060030AD0202B01D0402B50D1D4F88C02BE
:1053B00011468368204698478FE0C0F341100128CA
:1053C00006D05078D0B301282AD003283FD107E077
:1053D000D4F88C02114683682046BDE8F041184796
:1053E00094F87402022802D0032872D10AE071B343
:1053F00080296ED02046FFF7AFFE80212046FFF7C0
:10540000ABFE6AE0508838B931B1802904D0D08829
:1054100010B92046FFF7A0FE2046FFF7D2FB5CE064
:1054200094F874020228E2D0032852D1508898BB25
:105430004806F1D02046FFF7FCFCEDE7FFE794F8C3
:1054400074020026022803D0032842D112E040E073
:1054500009B180293DD1080601F07F0000EB8000F2
:1054600004EB800101D5143101E001F5A0710222A5
:105470000E602AE0080601F00F0000EB800004EB4C
:1054800080000AD5806920B301F07F0000EB800026
:1054900004EB800514350BE01FE0D0F84401C0B1E7
:1054A00001F07F0000EB800004EB800505F5A0759E
:1054B00041B1802906D02046FFF7B2FD10B101208E
:1054C000286000E02E60022229462046FFF76CFB90
:1054D00003E011462046FFF742FB3846BDE8F08165
:1054E00070B5054608780C4610F0600003D02028FF
:1054F00001D0402816D195F87402012803D0022863
:1055000001D003280ED1207901280BD8D5F88C02C0
:10551000826828469047E188014306D12846FFF774
:1055200050FB02E02846FFF71AFB002070BD000088
:1055300070B50A78012302F00F054E78AB401B4C82
:10554000D0F81C58012E17D045EA0343C0F81C3888
:1055500000EB4210D0F8002B12040BD4D0F8002B33
:105560000B89C978C3F30A031A4344EA81410A4309
:10557000C0F8002B002070BD9BB21D43C0F81C5822
:1055800000EB4210D0F800391B04F3D4D0F80039F6
:105590000D89C978C5F30A0589042B4341EA825174
:1055A0000B432343C0F80039E4E7000000800010FB
:1055B000D0F800196FF30A01C0F80019D0F80818E4
:1055C000C1F34101022905D1D0F8001941F00301CE
:1055D000C0F80019D0F8041841F48071C0F804181C
:1055E0000020704770B5044606990A9E049D0D98E8
:1055F000012916D0E06840F04000E060204600F04D
:105600002BF8A16B1EB321F48031A163012D07D1CA
:10561000A16841F00601A160A16841F02001A160EC
:1056200070BDA16B21F48031A163E168094A11408A
:10563000E160E16821F44011E160012803D1E068F4
:1056400040F48010E060204600F006F8DEE741F408
:105650008031DAE7BFFFBDFF01220C4902E0521C96
:105660008A420BD80369002BF9DA026942F0010281
:105670000261012204E0521C8A4201D903207047D2
:105680000369DB07F7D1002070470000400D0300DD
:1056900030B50B784D78012203F00F0402FA04F4C0
:1056A000012DD0F83C5817D025EA0444C0F83C48F6
:1056B000D0F81C48097801F00F018A4024EA024121
:1056C000C0F81C1800EB4310D0F8001B0E4A114024
:1056D000C0F8001B002030BDA4B2A543C0F83C5860
:1056E000D0F81C48097801F00F018A4091B28C4330
:1056F000C0F81C4800EB4310D0F80019034A1140D1
:10570000C0F80019E6E700000078F3EF007833EC0A
:1057100010B5D0F8041821F00201C0F804180320D5
:10572000FBF7B0F8002010BD10B5D0F8041841F018
:105730000201C0F804180320FBF7A4F8002010BDF4
:105740002DE9F04F0025DDE90BCB0E460446DDF8D0
:105750004090099F2846294604EB8002C2F80411B4
:10576000401C0F28F8D3B9F1000F204618D000686C
:1057700020F400122260A06B40F40022A2630846CD
:105780008846C4F8000ED4F800182046C4F8001863
:10579000BCF1010F10D0D0F8001841F0030110E067
:1057A000806B40F40012A263A06B20F40022A2637D
:1057B000A06B20F48022E1E7D0F800180BB141F093
:1057C0000101C0F80018102100F0A0FA00B1012575
:1057D000204600F08BFA00B101254046C4F810883D
:1057E000C4F81488C4F81C8800214FF000634FF0FF
:1057F00090484FF67F3A14E004EB4112D2F800C90A
:10580000BCF1000F06DA11B1C2F8008904E0C4F857
:10581000003901E0C2F80009C2F81009C2F808A96D
:10582000491C8E42E8D8002115E000BF04EB41126C
:10583000D2F800CBBCF1000F06DA11B1C2F8008B30
:1058400004E0C4F8003B01E0C2F8000BC2F8100B02
:10585000C2F808AB491C8E42E8D8D4F8101821F4DD
:1058600080722146C4F81028012F08D1134AC1F8CC
:105870003028D1F83018124A1143C4F83018A0610A
:105880006FF0804060611FB9A06940F01000A06116
:10589000A0690C490843A061BBF1000F03D0A069C7
:1058A00040F00800A061B9F1010F03D1A0690649D9
:1058B0000843A0612846BDE8F08F00000001800089
:1058C0000300010000383C8004000040816821F0A2
:1058D000010181600020704770B50D784E78434C0F
:1058E000EBB200EB4313012E1FD0D3F8100B6FF374
:1058F0001200C3F8100BD3F8100B2040C3F8100BA4
:10590000486908B188684861D3F8100B40F400205A
:10591000C3F8100BD3F8100B8C68C4F312042043A7
:10592000C3F8100B012A55D058E04E69002ED3F869
:10593000106932D06FF31206C3F81069D3F81069FA
:105940002640C3F810694E698C68A64200D94C61A4
:10595000D3F8104944F40024C3F81049D3F810498F
:105960004E69C6F312063443C3F81049012A22D007
:1059700000EB4512D2F8003943F00443C2F8003975
:105980004A6932B3D0F83428097801F00F030121B5
:1059900099400A43C0F8342826E02640C3F810692D
:1059A000D3F8104944F40024C3F81049D3F810493F
:1059B0006FF31204D8E7096919B100EB4512C2F878
:1059C000141900EB4510D0F8001941F00441C0F85B
:1059D000001909E0C86808B1C3F8140BD3F8000B2C
:1059E00040F00440C3F8000B002070BDFFFF07E04B
:1059F00010B5036C134CA34203D9D0F8003B002B25
:105A00001EDB0023C0F8103BD0F8103B43F400230A
:105A1000C0F8103BD0F8103B43F01803C0F8103B1F
:105A2000D0F8103B43F0C043C0F8103B012907D128
:105A3000C0F8142BD0F8001B41F08021C0F8001BE7
:105A4000002010BD0A30544F4A780B78012A00EB31
:105A500043100BD0D0F8002B22F40012C0F8002B1A
:105A6000C978032914D0022912D017E0D0F80029F0
:105A700022F40012C0F80029C978032901D00229B4
:105A80000CD1D0F8001941F08051C0F8001905E0A0
:105A9000D0F8001B41F08051C0F8001B0020704777
:105AA0000A784B78D1B200EB4110012B12D0D0F81C
:105AB000001B002906DB2AB1D0F8001B21F0804131
:105AC000C0F8001BD0F8001B41F40011C0F8001B07
:105AD00000207047D0F80019002906DB2AB1D0F861
