:020000040800F2
:10000000701400209D010008F5240008F724000862
:10001000FB240008FF24000803250008000000005E
:10002000000000000000000000000000072500089C
:1000300009250008000000000B2500080F25000816
:10004000B7010008B7010008B7010008B7010008B0
:10005000B7010008B7010008B7010008B7010008A0
:10006000B7010008B7010008B7010008B701000890
:10007000B7010008B7010008B7010008B701000880
:10008000B7010008B7010008B7010008B701000870
:10009000B7010008B7010008B7010008B701000860
:1000A000B7010008B7010008B7010008B701000850
:1000B000B7010008B7010008B7010008B701000840
:1000C000B7010008B7010008B7010008B701000830
:1000D000B7010008B7010008B7010008B701000820
:1000E000B7010008B7010008B7010008B701000810
:1000F000B7010008B7010008B7010008B701000800
:10010000B7010008B7010008B7010008B7010008EF
:10011000B7010008B7010008B7010008B7010008DF
:10012000B7010008B7010008B7010008B7010008CF
:10013000B7010008B7010008B7010008B7010008BF
:10014000B7010008B7010008B7010008B7010008AF
:10015000B7010008B7010008B7010008B70100089F
:10016000B7010008B7010008B7010008B70100088F
:10017000B7010008B7010008B7010008000000003F
:10018000B7010008B7010008DFF80CD002F054FAFC
:1001900000480047312400087014002006488047BA
:1001A00006480047FEE7FEE7FEE7FEE7FEE7FEE75C
:1001B000FEE7FEE7FEE7FEE71925000889010008D3
:1001C000704770B50446674800684FF47A71B0FB19
:1001D000F1F5284600F06EF900222146501E00F08D
:1001E000F3F8002070BD10B55F48006840F400705F
:1001F0005D4908600846006840F480600860084671
:10020000006840F480700860032000F0CBF80F20F5
:10021000FFF7D7FF00F04EFC002010BD704710B56F
:100220004FF0FF305149086000200860401E091D52
:10023000086000200860401E4C491039086000200A
:100240000860401E091D086000200860401E091D4E
:1002500008600020086000F02EFC002010BD44481B
:100260000068401C42490860704741480068704778
:1002700031B501F0D7FB0546009C601C00B1641C41
:1002800000BF01F0CFFB401BA042FAD338BD4FF0B6
:10029000E020006920F002004FF0E0210861704783
:1002A0004FF0E020006940F002004FF0E0210861CB
:1002B00070473048704730480068000C70472E483F
:1002C0000068C0F30B0070472B48406840F0010005
:1002D0002949486070472848406820F001002649B5
:1002E000486070472448406840F002002249486056
:1002F00070472148406820F002001F49486070475D
:100300001D48406840F004001B49486070471A4887
:10031000406820F00400184948607047012090FAB6
:10032000A0F1B1FA81F1154A02EB8101C1F8000494
:1003300070470020012191FAA1F1B1FA81F10F4A31
:1003400002EB8101C1F8000470470D4909680160A2
:100350000B49091D09684160094908310968816034
:10036000704700001C000020003C02402038024082
:100370000000002000010701002004E000002742E7
:10038000107AFF1F10B5002807DA0A07140ED94AA1
:1003900000F00F031B1FD45403E00A07130ED64AC4
:1003A000135410BD00BF00F00702D24B0C3B19687C
:1003B0004FF6FF031940D14B0B4343EA0221CD4BCB
:1003C0000C3B196000BF70472DE9F05F80460D4679
:1003D0001646002700F087F9074639462A46334675
:1003E00001F00700C0F1070ABAF1040F02D94FF07B
:1003F000040A01E0C0F1070AD14600F1040ABAF18B
:10040000070F02D24FF0000A01E0A0F1030AD44620
:100410004FF0010A0AFA09FAAAF1010A0AEA020AE5
:100420000AFA0CFA4FF0010B0BFA0CFBABF1010BC3
:100430000BEA030B4AEA0B0421464046FFF7A2FFF2
:10044000BDE8F09F00BF00F01F020121914042096A
:10045000920002F1E022C2F8001100BF704700BF15
:1004600000F01F0201219140A54A430942F82310E0
:1004700000BF704700BF00BF00BF00BF00BFBFF399
:100480004F8F00BF00BF00BF9A480C38006800F4CF
:10049000E0609A490843001D96490C39086000BF86
:1004A00000BF00BFBFF34F8F00BF00BF00BF00E021
:1004B00000BFFDE770B504462546681EB0F1807F99
:1004C00001D301200FE0681E4FF0E02148610F21A9
:1004D0004FF0FF30FFF756FF00204FF0E02188611A
:1004E00007200861002070BD00BF00BF00BFBFF340
:1004F0005F8F00BF00BF00BF7E480C30006820F453
:1005000080307C490C31086000207A497C310860D9
:10051000704740F00101774A7C32116075490C3117
:10052000096841F48031734A0C32116000BF00BF8A
:1005300000BFBFF34F8F00BF00BF00BF00BF00BFB1
:1005400000BFBFF36F8F00BF00BF00BF704741788F
:10055000684A803211600178F9B1121D416811605A
:10056000017B0907C27A41EA0261827A41EAC2410B
:10057000427B41EA8241827B41EA4241C27B41EABD
:100580000241427A41EA0221027A41EA42010278BA
:100590001143584A8832116005E00021554A8432DF
:1005A0001160121D1160704710B500F09CF810BD6D
:1005B0002DE9F04304462046002808DA4D4F00F0AC
:1005C0000F0CACF1040C17F80C703F0902E04A4F15
:1005D0003F5C3F093D460E4606F00700C0F10708A4
:1005E000B8F1040F02D94FF0040801E0C0F1070888
:1005F000C44600F10408B8F1070F02D24FF000081A
:1006000001E0A0F10308474625FA07F84FF0010979
:1006100009FA0CF9A9F1010908EA0908C2F80080F1
:100620004FF0010808FA07F8A8F1010808EA0508E0
:10063000C3F8008000BFBDE8F08300BF00F01F02D8
:10064000012191402E4A8032430942F8231000BF15
:10065000704710B501460846294A8032430952F8CE
:10066000232000F01F040123A3401A400AB10122F5
:1006700000E00022104610BD00BF00F01F02012163
:100680009140204A430942F8231000BF704710B53B
:10069000014608461B4A8032430952F8232000F0E5
:1006A0001F040123A3401A400AB1012200E00022E6
:1006B000104610BD042808D14FF0E021096941F02F
:1006C00004014FF0E022116107E04FF0E0210969D9
:1006D00021F004014FF0E02211617047704710B51E
:1006E000FFF7FCFF10BD03480C380068C0F3022080
:1006F0007047000018ED00E000E400E00000FA059B
:1007000080E100E080E200E0F8B502460B460025FB
:10071000002400200021DCE0012606FA01F51E6815
:1007200006EA0504AC4273D15E68022E02D05E6810
:10073000122E13D1CF0802F1200656F827004E07DB
:10074000F70E0F26BE40B0434F07FF0E1E69BE4096
:100750003043CF0802F1200646F8270010684F000A
:100760000326BE40B0431E7906F003064F00BE408C
:10077000304310605E68012E08D05E68022E05D0FE
:100780005E68112E02D05E68122E13D190684F0061
:100790000326BE40B0434F00DE68BE403043906049
:1007A000506801268E40B0431E79C6F300168E4075
:1007B00030435060D0684F000326BE40B0434F0026
:1007C0009E68BE403043D0605E6806F08056B6F149
:1007D000805F7DD100BF00260096AB4E366846F4A0
:1007E0008046A94F3E603E46366806F48046009635
:1007F00000BF00BFA54E8F0856F827008E07370FA1
:100800000F26BE40B043A24EB24202D1002624E0E1
:100810005EE0A04EB24201D101261EE09E4EB242E1
:1008200001D1022619E09D4EB24201D1032614E007
:100830009B4EB24201D104260FE09A4EB24201D142
:1008400005260AE0984EB24201D1062605E0974EF1
:10085000B24201D1072600E008268F073F0FBE40B5
:1008600030438A4E8F0846F82700914E3068A043E7
:100870005E6806F48036B6F5803F00D120438C4E8A
:100880003060361D3068A0435E6806F40036B6F569
:10089000003F00D12043864E361D3060361D306843
:1008A000A0435E6806F48016B6F5801F00D1204391
:1008B0007F4E08363060361D3068A0435E6806F40F
:1008C0000016B6F5001F00D12043794E0C3630607B
:1008D000491C1029FFF420AFF8BDF0B50C460025E7
:1008E00000220023002192E0012606FA01F504EA25
:1008F0000502AA427ED106684FEA410C032707FA97
:100900000CF7BE430660CF0800F1200656F82760BA
:100910004F074FEAD76C0F2707FA0CF7BE434FEA91
:10092000D10C00F1200747F82C6086684FEA410C93
:10093000032707FA0CF7BE438660466801278F40FD
:10094000BE434660C6684FEA410C032707FA0CF71E
:10095000BE43C6604D4E8F0856F827308E07370FBE
:100960000F26BE4033404A4EB04201D1002623E05C
:10097000484EB04201D101261EE0474EB04201D19F
:10098000022619E0454EB04201D1032614E0444E40
:10099000B04201D104260FE0424EB04201D10526FB
:1009A0000AE0414EB04201D1062605E03F4EB0427A
:1009B00001D1072600E008268F073F0FBE409E4268
:1009C00024D18E07370F0F2606FA07F32F4E8F0814
:1009D00056F827609E432D4F4FEA910C47F82C6044
:1009E000334E36689643324F3E603E1D366896431E
:1009F0003F1D00E00AE03E603E1D366896433F1D05
:100A00003E603E1D366896433F1D3E60491C1029DE
:100A1000FFF46AAFF0BD024613690B400BB1012031
:100A200000E0002070470AB1816101E00B0483619E
:100A3000704742694A404261704708B502464FF428
:100A4000803000900098084300900098D061D161F8
:100A50000098D061D0690090D06900F4803008B16E
:100A6000002008BD0120FCE7704710B5044610487F
:100A700014300068204028B10D481430046020462E
:100A8000FFF7F2FF10BD0000443802400838014073
:100A9000000002400004024000080240000C024036
:100AA000001002400014024000180240001C0240E6
:100AB000003C01407047704770477047704738B539
:100AC00004460025207800F00100002874D0F74883
:100AD000006800F00C0004280DD0F448006800F015
:100AE0000C00082813D1F148001F006800F48000B2
:100AF000B0F5800F0BD1ED4808380068C0F34040D6
:100B0000002859D06068002856D1012038BD00BFA8
:100B10006068B0F5803F08D1E4480838006840F4C8
:100B20008030E249083908601EE06068B0F5A02F07
:100B30000DD1DE480838006840F48020DB490839D0
:100B400008600846006840F4803008600CE0D74830
:100B50000838006820F48030D44908390860084615
:100B6000006820F48020086000BF606890B100F049
:100B700059FF054606E000F055FF401B642801D9E7
:100B80000320C3E7C94808380068C0F34040002884
:100B9000F1D011E000F046FF054606E000F042FF0C
:100BA000401B642801D90320B0E7C048083800681A
:100BB000C0F340400028F1D1207800F00200022864
:100BC00069D1BA48006800F00C0058B1B748006815
:100BD00000F00C00082821D1B448001F006800F480
:100BE0008000D8B9B14808380068C0F3400020B18F
:100BF000E068012801D0012088E7AC480838006887
:100C000020F0F800F82292FAA2F2B2FA82F22169F8
:100C100091400843A549083908603CE0E06828B3E2
:100C20000120A349086000F0FDFE054606E000F043
:100C3000F9FE401B022801D9032067E79B480838CA
:100C40000068C0F340000028F1D0984808380068D8
:100C500020F0F800F82292FAA2F2B2FA82F22169A8
:100C60009140084391490839086014E000209049F8
:100C7000086000F0D7FE054606E000F0D3FE401BFA
:100C8000022801D9032041E7884808380068C0F3EA
:100C900040000028F1D1207800F0080008282CD16D
:100CA0006069A8B101208349086000F0BBFE0546D9
:100CB00006E000F0B7FE401B022801D9032025E71B
:100CC0007A486C300068C0F340000028F1D014E08E
:100CD00000207849086000F0A5FE054606E000F017
:100CE000A1FE401B022801D903200FE76F486C309A
:100CF0000068C0F340000028F1D1207800F0040023
:100D000004287FD100BF0020009068483830006878
:100D100040F080506549383108600846006800F0AE
:100D20008050009000BF00BF6348006840F48070AE
:100D30006149086000F076FE054606E000F072FEAC
:100D4000401B022801D90320E0E65B48006800F45C
:100D500080700028F2D000BFA068012808D1534855
:100D60006830006840F001005049683108601DE0BB
:100D7000A06805280DD14D486830006840F0040097
:100D80004A49683108600846006840F00100086080
:100D90000CE046486830006820F0010043496831A3
:100DA00008600846006820F00400086000BFA068E2
:100DB000A0B100F037FE054608E000F033FE401B0E
:100DC00041F28831884201D903209FE637486830D4
:100DD0000068C0F340000028EFD013E000F022FECE
:100DE000054608E000F01EFE401B41F288318842B3
:100DF00001D903208AE62D4868300068C0F340001E
:100E00000028EFD1A069E8B32848006800F00C0082
:100E1000082870D0A069022857D10020244908660C
:100E200000F000FE054606E000F0FCFD401B022835
:100E300001D903206AE61D4808380068C0F3406005
:100E40000028F1D1D4E90701084347F6C07292FAAD
:100E5000A2F2B2FA82F2616A914008430122A16AC9
:100E6000C2EB51014FF4403292FAA2F2B2FA82F28E
:100E7000914008434FF0706292FAA2F2B2FA82F205
:100E8000E16A00E039E0914008430849091F086021
:100E900001200749086600F0C5FD05460EE000F098
:100EA000C1FD401B022809D903202FE60838024063
:100EB00000004742800E474200700040FC48006836
:100EC000C0F340600028EAD017E00020F949086626
:100ED00000F0A8FD054606E000F0A4FD401B022836
:100EE00001D9032012E6F2480068C0F340600028F0
:100EF000F2D102E0FFE7012008E6002006E670B527
:100F00000021002200230020E94C0834246804F06A
:100F10000C0424B1042C04D0082C41D103E0E64891
:100F200040E0E6483EE0E24C241D246804F03F0126
:100F3000DF4C241D246804F4800484B1DF4CB4FB2E
:100F4000F1F5DB4C241D246847F6C076344096FA50
:100F5000A6F6B6FA86F6F44005FB04F20FE0D64C8E
:100F6000B4FBF1F5D24C241D246847F6C07634401A
:100F700096FAA6F6B6FA86F6F44005FB04F2CC4CD7
:100F8000241D246804F440344FF4403595FAA5F547
:100F9000B5FA85F5EC40641C6300B2FBF3F001E0A8
:100FA000C54800BF00BF70BD70B504460D460026A1
:100FB000C348006800F00F00A84209D2C0490D7074
:100FC0000846006800F00F00A84201D0012070BD63
:100FD000207800F00200022809D1B54808300068E6
:100FE00020F0F000A1680843B1490831086020787A
:100FF00000F0010000287AD06068012806D1AC48D2
:101000000068C0F34040A8B90120E0E7606802280A
:1010100002D06068032806D1A5480068C0F340608C
:1010200040B90120D3E7A2480068C0F3400008B9E6
:101030000120CCE79E480830006820F0030061687A
:1010400008439B490831086000F0ECFC06466068E4
:10105000012811D108E000F0E5FC801B41F2883145
:10106000884201D90320B2E791480830006800F0B7
:101070000C000428EFD13AE06068022811D108E0A2
:1010800000F0D0FC801B41F28831884201D9032056
:101090009DE787480830006800F00C000828EFD171
:1010A00025E06068032811D108E000F0BBFC801B3C
:1010B00041F28831884201D9032088E77C48083012
:1010C000006800F00C000C28EFD110E008E000F000
:1010D000A9FC801B41F28831884201D9032076E7C0
:1010E00073480830006800F00C000028EFD1744805
:1010F000006800F00F00A84209D971490D70084638
:10110000006800F00F00A84201D001205FE72078BE
:1011100000F00400042809D165480830006820F474
:10112000E050E1680843624908310860207800F027
:10113000080008280AD15E480830006820F46040A2
:10114000216940EAC1005A4908310860FFF7D7FE1B
:1011500057490831096801F0F001F02292FAA2F231
:10116000B2FA82F2D140574A515CC84056490860F1
:101170000F20FFF726F8002029E770B586B0064655
:101180000C46154656BB00BF002000904848303042
:10119000006840F0010046493031086008460068A8
:1011A00000F00100009000BF00BF881501900220F0
:1011B00002900320049000200390059001A9434869
:1011C000FFF7A2FA3A480830006820F0EC6044EAE1
:1011D0000501084336490831086029E000BF0020B6
:1011E000009033483030006840F00400304930311E
:1011F00008600846006800F00400009000BF00BFCF
:1012000048150190022002900320049000200390D2
:10121000059001A92E48FFF777FA254808300068A5
:1012200020F0784044EAC5010843214908310860AC
:1012300006B070BD01201F49C864704700201D49D9
:10124000C864704720480068704700B5FFF7FAFF90
:1012500017490831096801F4E0514FF4E05292FA5D
:10126000A2F2B2FA82F2D1401A4A515CC84000BDE3
:1012700000B5FFF7E7FF0E490831096801F4604146
:101280004FF4604292FAA2F2B2FA82F2D140114ACD
:10129000515CC84000BD0F2101600549096801F497
:1012A0008021B1F5802F17D14FF4A021416020E0BB
:1012B00000380240000047420024F40000127A0087
:1012C000003C0240382700081C00002000000240BB
:1012D00000080240482700085A49096801F4803193
:1012E000B1F5803F03D14FF48031416001E000212E
:1012F00041605449096801F0010111B10121C16047
:1013000001E00021C1604F49096801F0F801F822AD
:1013100092FAA2F2B2FA82F2D140016149497031E7
:10132000096801F00401042902D1052181600AE065
:1013300044497031096801F0010111B10121816056
:1013400001E0002181603F497431096801F0010129
:1013500011B10121416101E0002141613949096870
:1013600001F08071B1F1807F02D10221816101E041
:10137000012181613349091D096801F48002C261BC
:101380003049091D096801F03F0202622D49091D1B
:10139000096847F6C072114092FAA2F2B2FA82F2DC
:1013A000D14041622749091D096801F4403101F526
:1013B000803149004FF4403292FAA2F2B2FA82F23E
:1013C000D14081621F49091D096801F070614FF029
:1013D000706292FAA2F2B2FA82F2D140C162704710
:1013E0000F220260174A0832126802F003024260BC
:1013F000144A0832126802F0F0028260114A083280
:10140000126802F4E052C2600E4A0832126802F416
:101410006042D20802610C4A126802F00F020A60B0
:101420007047704710B507480C30006800F0800026
:10143000802805D1FFF7F5FF802002490E310870A2
:1014400010BD000000380240003C024000B593B0DF
:1014500000BF002001902848006840F080502649D5
:1014600008600846006800F08050019000BF00BF8F
:1014700000BF002001902148006840F480401F49CF
:1014800008600846006800F48040019000BF00BF7B
:101490000120029000040390002005904FF4800189
:1014A00009910220089008210A914FF4A8710B912C
:1014B00002210C9107210D9102A8FFF700FB10B14A
:1014C000012013B000BD02200F90002010900720D3
:1014D0000E900E9840F008000E904FF4A05011901E
:1014E0004FF48050129006210EA8FFF75DFD08B161
:1014F0000120E6E70020E4E74038024000700040A9
:1015000001464FF40030081AC0F38F2070472DE9D0
:10151000F04304460E461546DDE907892046FFF7ED
:10152000EFFFC7B2002243E001209040304000B9F5
:101530003CE0B14830F81700012191400843AE4922
:1015400021F81700E0684FEA420C032101FA0CF180
:101550008843510008FA01F10843E06020684FEA2F
:10156000420C032101FA0CF18843510005FA01F104
:1015700008432060012D01D0022D16D161680120A1
:10158000904080B221EA000003FA02F189B20843D8
:101590006060A0684FEA420C032101FA0CF1884315
:1015A000510009FA01F10843A06000BF501CC2B20B
:1015B000102AB9DBBDE8F08300B502461046FFF7FC
:1015C0009FFF012101FA00F08C49096808438B490B
:1015D000086000BD2DE9FC4305460C4616461F4633
:1015E000DDE909890CB9BDE8FC832846FFF7E4FF73
:1015F0003B46324621462846CDE90089FFF787FF62
:1016000000BFF0E72DE9FC4705460E461746984611
:10161000DDE90A9A0EB9BDE8FC872846FFF7CCFF42
:1016200000241AE00120A040304000B914E0E10895
:1016300005F1200050F821006107CA0E0F219140EA
:1016400088436107C90E0AFA01F10843E20805F16F
:10165000200141F8220000BF641C102CE2D33B465D
:10166000022231462846CDE90089FFF750FF00BF2E
:10167000D1E770B503460C461846FFF741FFC5B2E7
:10168000002214E001209040204070B118685600FC
:101690000321B14008431860574830F81500012174
:1016A00091408843544921F81500501CC2B2102AB9
:1016B000E8DB70BD30B5024600200BE0012383401B
:1016C0000B402BB1136845000324AC40A3431360C7
:1016D000431CD8B21028F1DB30BD30B502460020E3
:1016E0000FE0012383400B404BB1136845000324F6
:1016F000AC40A34345000124AC4023431360431C8A
:10170000D8B21028EDDB30BD30B5024600200BE02A
:10171000012383400B402BB1136845000324AC40E8
:1017200023431360431CD8B21028F1DB30BD30B521
:101730000246002011E0012383400B4003B90AE078
:10174000136845000324AC40A34345000224AC4089
:101750002343136000BF431CD8B21028EBDB30BD1D
:1017600070B50346002011E0012484400C4004B908
:101770000AE0DC6846000325B540AC43450002FAA8
:1017800005F52C43DC6000BF441CE0B21028EBDB05
:1017900070BD41F48032C261C161C261C369C36975
:1017A00070470146002002E0421C90B24910012916
:1017B000FADC704700B502461046FFF7A1FE012192
:1017C00081400E48006888430C49086000BD00B5A0
:1017D00002461046FFF794FE074931F8100000BD9D
:1017E00000B502461046FFF78BFE034931F81000A2
:1017F000C04380B200BD0000280000203038024005
:101800009748006820F08070954A10601046006884
:1018100040F0807010609348006820F00100914A09
:1018200010601046006840F0010010600020506019
:101830001046416800BF00BF8A484068401A7047A0
:101840002DE9F04705460E4617469846DDF82090EC
:1018500085480078052802DB0020BDE8F0871420C9
:1018600000F034FF04460CB90020F6E765606068BC
:10187000A060207866F300002070207867F34100B4
:101880002070C4F80C80C4F8109077480178007874
:10189000401C754A1070101D40F821402046DCE7BE
:1018A0002DE9F0410646002408E06F48001D50F87D
:1018B0002400B04200D105E0601CC4B26A48007840
:1018C000A042F2DC00BF68480078A04201D1BDE828
:1018D000F0816548001D50F8247000BFEFF31080C0
:1018E000054672B608E06048001D611C50F82110E2
:1018F00040F82410601CC4B25B480078401EA0422F
:10190000F1DC59480078401E57490870384600F00D
:10191000B5FE05B962B600BFD9E7017821F0020132
:1019200001707047017821F00201891C0170704735
:1019300041688160704709B1012200E0002203780C
:1019400062F300030370704741607047704710B541
:1019500046480068401C454908604548006820B179
:1019600043480068401E42490860002453E03E4856
:10197000001D50F8240000284BD03B48001D50F8B3
:1019800024000078C0F34000F0B33748001D50F841
:101990002400806850B13448001D50F8240080684D
:1019A000401E3149091D51F8241088602E48001D41
:1019B00050F82400806838BB2B4B1B1D53F8243093
:1019C0001969294B1B1D53F8240053F82430DA6899
:1019D00090472548001D50F8240041682248001D0A
:1019E00050F8240081602048001D50F82400007841
:1019F00000F0010040B91C48001D50F82400007898
:101A000020F00201184800E003E0001D50F8240017
:101A10000170601CC4B214480078A042A7DCFFF734
:101A200095FF10BD11480068704700B5014600BF22
:101A3000EFF3058048B9FFF7F5FF024600BFFFF757
:101A4000F1FF801A8842FAD309E006E04FF0E02067
:101A5000006900F4803000B1491E0029F6D100BDB4
:101A6000FCED00E0001000E0440000200800002031
:101A7000040000201CB5032000210B460122CDE903
:101A800000104FF470411E48FFF7A4FD4FF0704066
:101A90001B49183108601CBD1CB5002002210346FB
:101AA0000246CDE9001001211648FFF793FD1CBD49
:101AB0001448006900F0010080F0010030B91248BC
:101AC000007830B9012010490870704700200E4995
:101AD00008700020F9E70B48006900F0010080F071
:101AE000010038B10848007838B100200649087074
:101AF000012070470120044908700020F9E7000028
:101B0000000C0240000002400C0000200146087852
:101B1000282801D1012070470020FCE770B5054658
:101B20000C462046FFF7F2FF08B9002070BD28469A
:101B300000F095FA2146284600F03AFC4421284658
:101B400000F007FB0120F1E710B50446204600F045
:101B500086FACC21204600F0FCFA4421204600F011
:101B6000F8FA10BD2DE9F74F2DED028B84B08846B1
:101B700091464FF0000B00264046FFF7C7FF28B9FB
:101B8000002004B0BDEC028BBDE8FE8F069800F08B
:101B9000BCFA08B90020F4E7069800F060FA414664
:101BA000069800F005FCBE21069800F0D2FA002647
:101BB00006E0069800F0DEFA01A98855701CC6B24E
:101BC000092EF6DB082101A800F010FC07469DF85D
:101BD0000C00B84201D00020D3E79DF804009DF826
:101BE000051040EA0124069800F039FA04F4004098
:101BF00020B1E043401C84B24FF0010B9DF8080077
:101C0000C0F3411000F1090A201145B2C4F30220CB
:101C100045EA0015BAF1090F09D0BAF10A0F15D03B
:101C2000BAF10B0F21D0BAF10C0F3CD12CE0C4F368
:101C3000C00000EE100AB8EEC00AB0EE408AB6EE60
:101C4000000A28EE000AB0EE408A30E0C4F38100BA
:101C500000EE100AB8EEC00AB0EE408AB5EE000AF7
:101C600028EE000AB0EE408A21E0C4F3420000EE04
:101C7000100AB8EEC00AB0EE408AB4EE000A28EEB0
:101C8000000AB0EE408A12E004F00F0000EE100AE5
:101C9000B8EEC00AB0EE408A9FEDDB0A28EE000ADB
:101CA000B0EE408A03E09FEDD98A002500BF00BF57
:101CB00000EE105AB8EEC00A30EE080AB0EE408AC4
:101CC000BBF1000F05D09FEDD20A30EE480AB0EE0E
:101CD000408A89ED008A012053E770B506460C461C
:101CE0002046FFF713FF08B9002070BD304600F012
:101CF000B6F92146304600F05BFBBE21304600F0CD
:101D000028FA304600F036FA304600F033FA304612
:101D100000F030FA304600F02DFA304600F02AFA92
:101D20000546C5F341100930DFE72DE9F0470746C6
:101D30000E4615463046FFF7E9FE10B90020BDE813
:101D4000F087384600F08BF93146384600F030FB1A
:101D5000BE21384600F0FDF9384600F00BFA38464F
:101D600000F008FA384600F005FA8146384600F0DF
:101D700001FA8046384600F0FDF90446092D04D1E9
:101D800024F0400424F0200413E00A2D04D124F0B0
:101D9000400444F020040CE00B2D04D144F0400436
:101DA00024F0200405E00C2D03D144F0400444F05D
:101DB0002004384600F053F93146384600F0F8FA6E
:101DC0004E21384600F0C5F94946384600F0C1F9C1
:101DD0004146384600F0BDF92146384600F0B9F9D1
:101DE000384600F03CF93146384600F0E1FA482127
:101DF000384600F0AEF90120A1E72DE9F04706468C
:101E00000D4614462846FFF781FE10B90020BDE8B4
:101E1000F0877D2C00DD7D2414F1370F01DA6FF09F
:101E20003604304600F01BF92946304600F0C0FA6F
:101E3000BE21304600F08DF9304600F09BF9304667
:101E400000F098F9304600F095F98046304600F0F1
:101E500091F90746304600F08DF98146E7B23046E9
:101E600000F0FDF82946304600F0A2FA4E21304637
:101E700000F06FF94146304600F06BF939463046C4
:101E800000F067F94946304600F063F9304600F04B
:101E9000E6F82946304600F08BFA4821304600F03B
:101EA00058F90120B3E72DE9F04706460D461446E0
:101EB0002846FFF72BFE10B90020BDE8F0877D2CE7
:101EC00000DD7D2414F1370F01DA6FF0360430465F
:101ED00000F0C5F82946304600F06AFABE213046C7
:101EE00000F037F9304600F045F9304600F042F98D
:101EF000304600F03FF90746304600F03BF9814696
:101F0000304600F037F98046E7B2304600F0A7F8D7
:101F10002946304600F04CFA4E21304600F019F9BF
:101F20003946304600F015F94946304600F011F9BF
:101F30004146304600F00DF9304600F090F8294651
:101F4000304600F035FA4821304600F002F9012011
:101F5000B3E72DE9F04105460C462046FFF7D6FDD4
:101F600010B90020BDE8F081284600F078F821463D
:101F7000284600F01DFABE21284600F0EAF828465F
:101F800000F0F8F8284600F0F5F8284600F0F2F8DE
:101F90000746284600F0EEF80646284600F0EAF824
:101FA00080467D27C926284600F059F82146284654
:101FB00000F0FEF94E21284600F0CBF839462846BD
:101FC00000F0C7F83146284600F0C3F841462846DD
:101FD00000F0BFF8284600F042F82146284600F0FD
:101FE000E7F94821284600F0B4F80120BAE710B517
:101FF0000446EC21204600F0D0F810BD10B5044690
:10200000204600F082F810BD0000803D00007F43B4
:102010000000000031B5F8484468FFF713F9F749AC
:10202000B0FBF1F000994843009000BFF2484068CF
:10203000001B00998842F9D338BD7CB504460E4692
:102040001546FFF7DDFB01200090002302462946DC
:1020500001903046FFF7BEFA2660A5807CBD70B5C2
:102060000446A088000421688861A1882068FFF7E1
:1020700034FB4FF4F070FFF7CDFFA1882068FFF725
:1020800019FB4620FFF7C6FF20680069A1880840B9
:1020900008B1012000E0002005464FF4CD70FFF7A5
:1020A000B9FF284670BD70B504460D46B5B1A0888D
:1020B000000421688861A1882068FFF70EFB0A20D0
:1020C000FFF7A8FFA1882068FFF7F4FA3720FFF791
:1020D000A1FFA1882068FFF7EDFA15E0A0880004B1
:1020E00021688861A1882068FFF7F7FA4120FFF78F
:1020F00091FFA1882068FFF7DDFA0520FFF78AFF2E
:10210000A1882068FFF7D6FA70BD70B50446002597
:10211000A088000421688861A1882068FFF7DDFAA3
:102120000320FFF777FFA1882068FFF7C3FA0A2092
:10213000FFF770FF20680069A188084008B10120FE
:1021400000E0002000B101253220FFF763FF2846A0
:1021500070BD70B505460C46082605E004F0010187
:102160002846FFF7A0FF6410301EA6F10101CEB291
:10217000F4D170BD70B505460826002406E0641051
:102180002846FFF7C2FF44EAC010C4B2301EA6F1D1
:102190000101CEB2F3D1204670BD2DE9F34F81B0DD
:1021A000044601264FF0000A002501270020009078
:1021B000207A00286AD12046FFF751FF28B100207D
:1021C000A0712072E071BDE8FE8F20460299FFF7F2
:1021D000C0FF00BF2046FFF798FF80462046FFF76C
:1021E00094FF8146B8F1010F03D1B9F1010F00D17D
:1021F00041E0C84501D0C3461DE0A079B0420ADDE8
:1022000004F10900405D3840002801DD012000E0B4
:102210000020834606E0A079B04201D1012000E011
:1022200000208346BBF1000F05D1B246BAF1090F79
:1022300001DA84F807A0BBF1010F07D104F109000E
:10224000405D384304F10901485506E004F10900F6
:10225000405DB84304F10901485559462046FFF74F
:1022600022FF701CC6B27806070E17B9681CC5B2EB
:102270000127082DAEDB00BF412E07DB84F806A046
:10228000A07908B90120207201200090009808B1BF
:10229000607A20B90020A0712072E071009000984F
:1022A00091E7002181710172C171704710B5044638
:1022B0002046FFF7F6FFF0212046FFF76EFF10BD26
:1022C00010B50446F0212046FFF767FF10BD2DE949
:1022D000FC470446002505E004F10900405D0DF8C7
:1022E00005006D1C082DF7DBA77994F8088094F899
:1022F00007904020A07100202072F0212046FFF7B7
:102300004CFF78B10126002509E01DF8051004F105
:102310000900405D814201D0012602E06D1C082DBC
:10232000F3DB00E00026002505E01DF8051004F1B0
:10233000090041556D1C082DF7DBA77184F8088052
:1023400084F807903046BDE8FC8710B50A46427213
:10235000012105E0002400F109035C544B1CD9B2B3
:102360000829F7DB402383710023C371037210BD7A
:10237000C17981710021C171817909B9012101728D
:102380007047024602F10900405C704770B506468E
:102390000D4655213046FFF7DCFE002405E0295D9F
:1023A0003046FFF7D6FE601CC4B2082CF7DB70BDC8
:1023B00070B506460D4655213046FFF7CAFE00248B
:1023C00005E0295D3046FFF7C4FE601CC4B2082C4E
:1023D000F7DB70BD0246002005E002F109031B5C3B
:1023E0000B54431CD8B20828F7DB7047F0B50246FF
:1023F0000D46002015E00000001000E040420F00F4
:1024000012F8011B08230AE080EA010606F0010425
:1024100040100CB180F08C0049105E1EF3B2002B0E
:10242000F2D12E1EA5F10107FDB2E9D1F0BD0000E9
:10243000FFF70CF8FDF7D7FEFFF71CFB1022284929
:102440002848FFF7FAFD2748FFF730FF40B14FF467
:1024500080502549086025492248FFF7BBFF03E06B
:102460004FF48040204908602048FFF74FFB88B1B7
:102470000C221E491B48FFF758FC1E221B49194815
:10248000FFF711FD0A2219491648FFF7B6FC154857
:10249000FFF75AFB23E01548FFF738FBF8B1114866
:1024A000FFF7ACFDD8B1124A10490E48FFF75AFBAE
:1024B000A8B10C48FFF748FB0D4890ED000AF3EE79
:1024C0000E0AB4EEE00AF1EE10FA04DD4FF480409B
:1024D0000549086003E04FF0804003490860DAE7EF
:1024E000000402405C000020180C02401000002094
:1024F00018000020704700BFFEE700BFFEE700BFE6
:10250000FEE700BFFEE7704770477047704710B5A1
:10251000FFF71DFA10BD00003F48006840F470004E
:102520003D4908603D48006840F001003B490860B3
:1025300000203A49083108603848006838490840A6
:10254000364908603748091D0860081F006820F4F4
:102550008020091F0860002030490C3108604FF0CE
:1025600000602D4980390860704770B50020002256
:10257000022300240221294D08352D6805F00C00A6
:1025800020B1042806D0082834D107E0264D274E74
:10259000356033E0264D254E35602FE01F4D2D1D53
:1025A0002D68C5F380541D4D2D1D2D6805F03F018C
:1025B00054B11F4DB5FBF1F5184E361D3668C6F304
:1025C000881605FB06F209E0174DB5FBF1F5134E31
:1025D000361D3668C6F3881605FB06F20F4D2D1D15
:1025E0002D68C5F301456D1C6B00B2FBF3F50F4E72
:1025F000356003E00C4D0D4E356000BF00BF074D48
:1026000008352D68C5F303150A4E705D074D2D681A
:10261000C540064E356070BD88ED00E000380240D0
:10262000FFFFF6FE103000240024F4001C00002000
:1026300000127A0038270008064C074D06E0E068D3
:1026400040F0010394E8070098471034AC42F6D3F9
:10265000FDF79EFD502700087027000802E008C81B
:10266000121F08C1002AFAD170477047002001E00C
:1026700001C1121F002AFBD17047000010B50028CD
:1026800021D0114B0022001F196803E0814203D8BA
:102690000A4649680029F9D152B11368841A9C424C
:1026A00004D1006818441060104602E0506000E059
:1026B000186039B102680B1A934203D10B681A44AF
:1026C00002604968416010BD20000020F0B50B3069
:1026D000154D20F007010024144A0FE003688B42D7
:1026E0000BD38B4205D95E1A43184768C3E90067CC
:1026F00000E04368136002C004E0021D1068002877
:10270000ECD12046002802D1286808B10020F0BD95
:10271000064A07481060074A121A22F00702C0E969
:10272000002401202860D7E724000020200000209A
:102730007400002070100020000000000000000065
:102740000102030406070809000000000102030457
:102750007027000800000020280000005C26000808
:102760009827000828000020481400006C26000864
:102770000000000000000000000000000000000059
:102780000000000000000000000000000024F40031
:08279000000000000000000041
:040000050800018965
:00000001FF
